{
  "_format": "hh-sol-artifact-1",
  "contractName": "CodingBattle",
  "sourceName": "contracts/CodingBattle.sol",
  "abi": [
    {
      "inputs": [
        {
          "internalType": "address",
          "name": "_winner",
          "type": "address"
        }
      ],
      "name": "declareWinner",
      "outputs": [],
      "stateMutability": "nonpayable",
      "type": "function"
    },
    {
      "inputs": [],
      "name": "getWinner",
      "outputs": [
        {
          "internalType": "address",
          "name": "",
          "type": "address"
        }
      ],
      "stateMutability": "view",
      "type": "function"
    },
    {
      "inputs": [],
      "name": "joinGame",
      "outputs": [],
      "stateMutability": "payable",
      "type": "function"
    },
    {
      "inputs": [
        {
          "internalType": "uint256",
          "name": "",
          "type": "uint256"
        }
      ],
      "name": "playerAddresses",
      "outputs": [
        {
          "internalType": "address",
          "name": "",
          "type": "address"
        }
      ],
      "stateMutability": "view",
      "type": "function"
    },
    {
      "inputs": [
        {
          "internalType": "address",
          "name": "",
          "type": "address"
        }
      ],
      "name": "players",
      "outputs": [
        {
          "internalType": "address",
          "name": "addr",
          "type": "address"
        },
        {
          "internalType": "bool",
          "name": "hasJoined",
          "type": "bool"
        },
        {
          "internalType": "bool",
          "name": "hasSubmitted",
          "type": "bool"
        },
        {
          "internalType": "bool",
          "name": "isWinner",
          "type": "bool"
        }
      ],
      "stateMutability": "view",
      "type": "function"
    },
    {
      "inputs": [],
      "name": "prizePool",
      "outputs": [
        {
          "internalType": "uint256",
          "name": "",
          "type": "uint256"
        }
      ],
      "stateMutability": "view",
      "type": "function"
    },
    {
      "inputs": [
        {
          "internalType": "bool",
          "name": "isCorrect",
          "type": "bool"
        }
      ],
      "name": "submitSolution",
      "outputs": [],
      "stateMutability": "nonpayable",
      "type": "function"
    },
    {
      "inputs": [],
      "name": "winner",
      "outputs": [
        {
          "internalType": "address",
          "name": "",
          "type": "address"
        }
      ],
      "stateMutability": "view",
      "type": "function"
    }
  ],
  "bytecode": "0x608060405234801561001057600080fd5b50610eac806100206000396000f3fe60806040526004361061007b5760003560e01c8063d4f77b1c1161004e578063d4f77b1c1461013c578063db33f4f814610146578063dfbf53ae1461016f578063e2eb41ff1461019a5761007b565b8063031503471461008057806315c6aee2146100a9578063719ce73e146100e65780638e7ea5b214610111575b600080fd5b34801561008c57600080fd5b506100a760048036038101906100a291906109cf565b6101da565b005b3480156100b557600080fd5b506100d060048036038101906100cb9190610a32565b610326565b6040516100dd9190610aa0565b60405180910390f35b3480156100f257600080fd5b506100fb610365565b6040516101089190610aca565b60405180910390f35b34801561011d57600080fd5b5061012661036b565b6040516101339190610aa0565b60405180910390f35b610144610395565b005b34801561015257600080fd5b5061016d60048036038101906101689190610b11565b610612565b005b34801561017b57600080fd5b50610184610757565b6040516101919190610aa0565b60405180910390f35b3480156101a657600080fd5b506101c160048036038101906101bc9190610b11565b61077d565b6040516101d19493929190610b4d565b60405180910390f35b6000803373ffffffffffffffffffffffffffffffffffffffff1673ffffffffffffffffffffffffffffffffffffffff16815260200190815260200160002060000160149054906101000a900460ff16610268576040517f08c379a000000000000000000000000000000000000000000000000000000000815260040161025f90610bef565b60405180910390fd5b60016000803373ffffffffffffffffffffffffffffffffffffffff1673ffffffffffffffffffffffffffffffffffffffff16815260200190815260200160002060000160156101000a81548160ff02191690831515021790555080156103235760016000803373ffffffffffffffffffffffffffffffffffffffff1673ffffffffffffffffffffffffffffffffffffffff16815260200190815260200160002060000160166101000a81548160ff0219169083151502179055505b50565b6001818154811061033657600080fd5b906000526020600020016000915054906101000a900473ffffffffffffffffffffffffffffffffffffffff1681565b60025481565b6000600360009054906101000a900473ffffffffffffffffffffffffffffffffffffffff16905090565b655af3107a400034146103dd576040517f08c379a00000000000000000000000000000000000000000000000000000000081526004016103d490610c81565b60405180910390fd5b6000803373ffffffffffffffffffffffffffffffffffffffff1673ffffffffffffffffffffffffffffffffffffffff16815260200190815260200160002060000160149054906101000a900460ff161561046c576040517f08c379a000000000000000000000000000000000000000000000000000000000815260040161046390610ced565b60405180910390fd5b60405180608001604052803373ffffffffffffffffffffffffffffffffffffffff168152602001600115158152602001600015158152602001600015158152506000803373ffffffffffffffffffffffffffffffffffffffff1673ffffffffffffffffffffffffffffffffffffffff16815260200190815260200160002060008201518160000160006101000a81548173ffffffffffffffffffffffffffffffffffffffff021916908373ffffffffffffffffffffffffffffffffffffffff16021790555060208201518160000160146101000a81548160ff02191690831515021790555060408201518160000160156101000a81548160ff02191690831515021790555060608201518160000160166101000a81548160ff0219169083151502179055509050506001339080600181540180825580915050600190039060005260206000200160009091909190916101000a81548173ffffffffffffffffffffffffffffffffffffffff021916908373ffffffffffffffffffffffffffffffffffffffff16021790555034600260008282546106099190610d3c565b92505081905550565b6000808273ffffffffffffffffffffffffffffffffffffffff1673ffffffffffffffffffffffffffffffffffffffff16815260200190815260200160002060000160169054906101000a900460ff166106a0576040517f08c379a000000000000000000000000000000000000000000000000000000000815260040161069790610dde565b60405180910390fd5b80600360006101000a81548173ffffffffffffffffffffffffffffffffffffffff021916908373ffffffffffffffffffffffffffffffffffffffff160217905550600360009054906101000a900473ffffffffffffffffffffffffffffffffffffffff1673ffffffffffffffffffffffffffffffffffffffff166108fc6002549081150290604051600060405180830381858888f1935050505015801561074b573d6000803e3d6000fd5b506107546107f4565b50565b600360009054906101000a900473ffffffffffffffffffffffffffffffffffffffff1681565b60006020528060005260406000206000915090508060000160009054906101000a900473ffffffffffffffffffffffffffffffffffffffff16908060000160149054906101000a900460ff16908060000160159054906101000a900460ff16908060000160169054906101000a900460ff16905084565b60006002819055506000600360006101000a81548173ffffffffffffffffffffffffffffffffffffffff021916908373ffffffffffffffffffffffffffffffffffffffff16021790555060005b600180549050811015610943576000806001838154811061086557610864610dfe565b5b9060005260206000200160009054906101000a900473ffffffffffffffffffffffffffffffffffffffff1673ffffffffffffffffffffffffffffffffffffffff1673ffffffffffffffffffffffffffffffffffffffff168152602001908152602001600020600080820160006101000a81549073ffffffffffffffffffffffffffffffffffffffff02191690556000820160146101000a81549060ff02191690556000820160156101000a81549060ff02191690556000820160166101000a81549060ff02191690555050808061093b90610e2d565b915050610841565b50600160006109529190610954565b565b50805460008255906000526020600020908101906109729190610975565b50565b5b8082111561098e576000816000905550600101610976565b5090565b600080fd5b60008115159050919050565b6109ac81610997565b81146109b757600080fd5b50565b6000813590506109c9816109a3565b92915050565b6000602082840312156109e5576109e4610992565b5b60006109f3848285016109ba565b91505092915050565b6000819050919050565b610a0f816109fc565b8114610a1a57600080fd5b50565b600081359050610a2c81610a06565b92915050565b600060208284031215610a4857610a47610992565b5b6000610a5684828501610a1d565b91505092915050565b600073ffffffffffffffffffffffffffffffffffffffff82169050919050565b6000610a8a82610a5f565b9050919050565b610a9a81610a7f565b82525050565b6000602082019050610ab56000830184610a91565b92915050565b610ac4816109fc565b82525050565b6000602082019050610adf6000830184610abb565b92915050565b610aee81610a7f565b8114610af957600080fd5b50565b600081359050610b0b81610ae5565b92915050565b600060208284031215610b2757610b26610992565b5b6000610b3584828501610afc565b91505092915050565b610b4781610997565b82525050565b6000608082019050610b626000830187610a91565b610b6f6020830186610b3e565b610b7c6040830185610b3e565b610b896060830184610b3e565b95945050505050565b600082825260208201905092915050565b7f596f75206d757374206a6f696e207468652067616d6520666972737400000000600082015250565b6000610bd9601c83610b92565b9150610be482610ba3565b602082019050919050565b60006020820190508181036000830152610c0881610bcc565b9050919050565b7f4d7573742073656e642065786163746c7920302e303030312045544820746f2060008201527f6a6f696e00000000000000000000000000000000000000000000000000000000602082015250565b6000610c6b602483610b92565b9150610c7682610c0f565b604082019050919050565b60006020820190508181036000830152610c9a81610c5e565b9050919050565b7f506c617965722068617320616c7265616479206a6f696e656400000000000000600082015250565b6000610cd7601983610b92565b9150610ce282610ca1565b602082019050919050565b60006020820190508181036000830152610d0681610cca565b9050919050565b7f4e487b7100000000000000000000000000000000000000000000000000000000600052601160045260246000fd5b6000610d47826109fc565b9150610d52836109fc565b9250827fffffffffffffffffffffffffffffffffffffffffffffffffffffffffffffffff03821115610d8757610d86610d0d565b5b828201905092915050565b7f506c61796572206973206e6f74206d61726b65642061732077696e6e65720000600082015250565b6000610dc8601e83610b92565b9150610dd382610d92565b602082019050919050565b60006020820190508181036000830152610df781610dbb565b9050919050565b7f4e487b7100000000000000000000000000000000000000000000000000000000600052603260045260246000fd5b6000610e38826109fc565b91507fffffffffffffffffffffffffffffffffffffffffffffffffffffffffffffffff821415610e6b57610e6a610d0d565b5b60018201905091905056fea264697066735822122050501950711059f57a4012c061772f07c2c92f97f7ce19f06552aa2bbd1724bb64736f6c63430008090033",
  "linkReferences": {},
  "deployedLinkReferences": {}
}