{
  "_format": "hh-sol-artifact-1",
  "contractName": "QuestNFT",
  "sourceName": "contracts/QuestNFT.sol",
  "abi": [
    {
      "inputs": [],
      "stateMutability": "nonpayable",
      "type": "constructor"
    },
    {
      "anonymous": false,
      "inputs": [
        {
          "indexed": true,
          "internalType": "address",
          "name": "owner",
          "type": "address"
        },
        {
          "indexed": true,
          "internalType": "address",
          "name": "approved",
          "type": "address"
        },
        {
          "indexed": true,
          "internalType": "uint256",
          "name": "tokenId",
          "type": "uint256"
        }
      ],
      "name": "Approval",
      "type": "event"
    },
    {
      "anonymous": false,
      "inputs": [
        {
          "indexed": true,
          "internalType": "address",
          "name": "owner",
          "type": "address"
        },
        {
          "indexed": true,
          "internalType": "address",
          "name": "operator",
          "type": "address"
        },
        {
          "indexed": false,
          "internalType": "bool",
          "name": "approved",
          "type": "bool"
        }
      ],
      "name": "ApprovalForAll",
      "type": "event"
    },
    {
      "anonymous": false,
      "inputs": [
        {
          "indexed": true,
          "internalType": "address",
          "name": "from",
          "type": "address"
        },
        {
          "indexed": true,
          "internalType": "address",
          "name": "to",
          "type": "address"
        },
        {
          "indexed": true,
          "internalType": "uint256",
          "name": "tokenId",
          "type": "uint256"
        }
      ],
      "name": "Transfer",
      "type": "event"
    },
    {
      "inputs": [],
      "name": "COMMON_START_ID",
      "outputs": [
        {
          "internalType": "uint256",
          "name": "",
          "type": "uint256"
        }
      ],
      "stateMutability": "view",
      "type": "function"
    },
    {
      "inputs": [],
      "name": "LEGENDARY_START_ID",
      "outputs": [
        {
          "internalType": "uint256",
          "name": "",
          "type": "uint256"
        }
      ],
      "stateMutability": "view",
      "type": "function"
    },
    {
      "inputs": [],
      "name": "MAX_COMMON",
      "outputs": [
        {
          "internalType": "uint256",
          "name": "",
          "type": "uint256"
        }
      ],
      "stateMutability": "view",
      "type": "function"
    },
    {
      "inputs": [],
      "name": "MAX_LEGENDARY",
      "outputs": [
        {
          "internalType": "uint256",
          "name": "",
          "type": "uint256"
        }
      ],
      "stateMutability": "view",
      "type": "function"
    },
    {
      "inputs": [],
      "name": "MAX_RARE",
      "outputs": [
        {
          "internalType": "uint256",
          "name": "",
          "type": "uint256"
        }
      ],
      "stateMutability": "view",
      "type": "function"
    },
    {
      "inputs": [],
      "name": "RARE_START_ID",
      "outputs": [
        {
          "internalType": "uint256",
          "name": "",
          "type": "uint256"
        }
      ],
      "stateMutability": "view",
      "type": "function"
    },
    {
      "inputs": [
        {
          "internalType": "address",
          "name": "to",
          "type": "address"
        },
        {
          "internalType": "uint256",
          "name": "tokenId",
          "type": "uint256"
        }
      ],
      "name": "approve",
      "outputs": [],
      "stateMutability": "nonpayable",
      "type": "function"
    },
    {
      "inputs": [
        {
          "internalType": "address",
          "name": "owner",
          "type": "address"
        }
      ],
      "name": "balanceOf",
      "outputs": [
        {
          "internalType": "uint256",
          "name": "",
          "type": "uint256"
        }
      ],
      "stateMutability": "view",
      "type": "function"
    },
    {
      "inputs": [
        {
          "internalType": "uint256",
          "name": "tokenId",
          "type": "uint256"
        }
      ],
      "name": "getApproved",
      "outputs": [
        {
          "internalType": "address",
          "name": "",
          "type": "address"
        }
      ],
      "stateMutability": "view",
      "type": "function"
    },
    {
      "inputs": [
        {
          "internalType": "address",
          "name": "owner",
          "type": "address"
        },
        {
          "internalType": "address",
          "name": "operator",
          "type": "address"
        }
      ],
      "name": "isApprovedForAll",
      "outputs": [
        {
          "internalType": "bool",
          "name": "",
          "type": "bool"
        }
      ],
      "stateMutability": "view",
      "type": "function"
    },
    {
      "inputs": [
        {
          "internalType": "address",
          "name": "to",
          "type": "address"
        },
        {
          "internalType": "uint256",
          "name": "tokenId",
          "type": "uint256"
        }
      ],
      "name": "mint",
      "outputs": [],
      "stateMutability": "nonpayable",
      "type": "function"
    },
    {
      "inputs": [
        {
          "internalType": "address",
          "name": "recipient",
          "type": "address"
        },
        {
          "internalType": "enum QuestNFT.Rarity",
          "name": "rarity",
          "type": "uint8"
        }
      ],
      "name": "mintQuestNFT",
      "outputs": [],
      "stateMutability": "nonpayable",
      "type": "function"
    },
    {
      "inputs": [
        {
          "internalType": "enum QuestNFT.Rarity",
          "name": "",
          "type": "uint8"
        }
      ],
      "name": "mintedCount",
      "outputs": [
        {
          "internalType": "uint256",
          "name": "",
          "type": "uint256"
        }
      ],
      "stateMutability": "view",
      "type": "function"
    },
    {
      "inputs": [],
      "name": "name",
      "outputs": [
        {
          "internalType": "string",
          "name": "",
          "type": "string"
        }
      ],
      "stateMutability": "view",
      "type": "function"
    },
    {
      "inputs": [
        {
          "internalType": "uint256",
          "name": "tokenId",
          "type": "uint256"
        }
      ],
      "name": "ownerOf",
      "outputs": [
        {
          "internalType": "address",
          "name": "",
          "type": "address"
        }
      ],
      "stateMutability": "view",
      "type": "function"
    },
    {
      "inputs": [],
      "name": "symbol",
      "outputs": [
        {
          "internalType": "string",
          "name": "",
          "type": "string"
        }
      ],
      "stateMutability": "view",
      "type": "function"
    },
    {
      "inputs": [
        {
          "internalType": "address",
          "name": "from",
          "type": "address"
        },
        {
          "internalType": "address",
          "name": "to",
          "type": "address"
        },
        {
          "internalType": "uint256",
          "name": "tokenId",
          "type": "uint256"
        }
      ],
      "name": "transferFrom",
      "outputs": [],
      "stateMutability": "nonpayable",
      "type": "function"
    }
  ],
  "bytecode": "0x608060405234801561001057600080fd5b506040518060400160405280600881526020017f51756573744e46540000000000000000000000000000000000000000000000008152506040518060400160405280600481526020017f514e465400000000000000000000000000000000000000000000000000000000815250816000908161008c91906102f4565b50806001908161009c91906102f4565b5050506103c6565b600081519050919050565b7f4e487b7100000000000000000000000000000000000000000000000000000000600052604160045260246000fd5b7f4e487b7100000000000000000000000000000000000000000000000000000000600052602260045260246000fd5b6000600282049050600182168061012557607f821691505b602082108103610138576101376100de565b5b50919050565b60008190508160005260206000209050919050565b60006020601f8301049050919050565b600082821b905092915050565b6000600883026101a07fffffffffffffffffffffffffffffffffffffffffffffffffffffffffffffffff82610163565b6101aa8683610163565b95508019841693508086168417925050509392505050565b6000819050919050565b6000819050919050565b60006101f16101ec6101e7846101c2565b6101cc565b6101c2565b9050919050565b6000819050919050565b61020b836101d6565b61021f610217826101f8565b848454610170565b825550505050565b600090565b610234610227565b61023f818484610202565b505050565b5b818110156102635761025860008261022c565b600181019050610245565b5050565b601f8211156102a8576102798161013e565b61028284610153565b81016020851015610291578190505b6102a561029d85610153565b830182610244565b50505b505050565b600082821c905092915050565b60006102cb600019846008026102ad565b1980831691505092915050565b60006102e483836102ba565b9150826002028217905092915050565b6102fd826100a4565b67ffffffffffffffff811115610316576103156100af565b5b610320825461010d565b61032b828285610267565b600060209050601f83116001811461035e576000841561034c578287015190505b61035685826102d8565b8655506103be565b601f19841661036c8661013e565b60005b828110156103945784890151825560018201915060208501945060208101905061036f565b868310156103b157848901516103ad601f8916826102ba565b8355505b6001600288020188555050505b505050505050565b611f39806103d56000396000f3fe608060405234801561001057600080fd5b506004361061010b5760003560e01c806340c10f19116100a25780638b24aa78116100715780638b24aa78146102a657806395d89b41146102c4578063d406d453146102e2578063e2f7484114610312578063e985e9c5146103305761010b565b806340c10f191461020c5780636352211e1461022857806370a08231146102585780638aa08a4a146102885761010b565b806315c3aa31116100de57806315c3aa3114610198578063211eff15146101b457806323b872dd146101d257806324052ac8146101ee5761010b565b806306fdde0314610110578063081812fc1461012e578063095ea7b31461015e57806313a0f42d1461017a575b600080fd5b610118610360565b6040516101259190611359565b60405180910390f35b610148600480360381019061014391906113b6565b6103ee565b6040516101559190611424565b60405180910390f35b6101786004803603810190610173919061146b565b610473565b005b61018261056b565b60405161018f91906114ba565b60405180910390f35b6101b260048036038101906101ad91906114fa565b610570565b005b6101bc6109b1565b6040516101c991906114ba565b60405180910390f35b6101ec60048036038101906101e7919061153a565b6109b6565b005b6101f6610c4f565b60405161020391906114ba565b60405180910390f35b6102266004803603810190610221919061146b565b610c54565b005b610242600480360381019061023d91906113b6565b610e15565b60405161024f9190611424565b60405180910390f35b610272600480360381019061026d919061158d565b610ec6565b60405161027f91906114ba565b60405180910390f35b610290610f7d565b60405161029d91906114ba565b60405180910390f35b6102ae610f82565b6040516102bb91906114ba565b60405180910390f35b6102cc610f87565b6040516102d99190611359565b60405180910390f35b6102fc60048036038101906102f791906115ba565b611015565b60405161030991906114ba565b60405180910390f35b61031a61102d565b60405161032791906114ba565b60405180910390f35b61034a600480360381019061034591906115e7565b611032565b6040516103579190611642565b60405180910390f35b6000805461036d9061168c565b80601f01602080910402602001604051908101604052809291908181526020018280546103999061168c565b80156103e65780601f106103bb576101008083540402835291602001916103e6565b820191906000526020600020905b8154815290600101906020018083116103c957829003601f168201915b505050505081565b60006103f9826110c6565b610438576040517f08c379a000000000000000000000000000000000000000000000000000000000815260040161042f9061172f565b60405180910390fd5b6004600083815260200190815260200160002060009054906101000a900473ffffffffffffffffffffffffffffffffffffffff169050919050565b600061047e82610e15565b90508073ffffffffffffffffffffffffffffffffffffffff168373ffffffffffffffffffffffffffffffffffffffff16036104ee576040517f08c379a00000000000000000000000000000000000000000000000000000000081526004016104e59061179b565b60405180910390fd5b8073ffffffffffffffffffffffffffffffffffffffff163373ffffffffffffffffffffffffffffffffffffffff161461055c576040517f08c379a000000000000000000000000000000000000000000000000000000000815260040161055390611807565b60405180910390fd5b6105668383611132565b505050565b603281565b6000600281111561058457610583611827565b5b81600281111561059757610596611827565b5b14806105c75750600160028111156105b2576105b1611827565b5b8160028111156105c5576105c4611827565b5b145b806105f557506002808111156105e0576105df611827565b5b8160028111156105f3576105f2611827565b5b145b610634576040517f08c379a000000000000000000000000000000000000000000000000000000000815260040161062b906118a2565b60405180910390fd5b600080600281111561064957610648611827565b5b82600281111561065c5761065b611827565b5b036107735760326006600080600281111561067a57610679611827565b5b600281111561068c5761068b611827565b5b815260200190815260200160002054106106db576040517f08c379a00000000000000000000000000000000000000000000000000000000081526004016106d29061190e565b60405180910390fd5b600660008060028111156106f2576106f1611827565b5b600281111561070457610703611827565b5b815260200190815260200160002054600161071f919061195d565b90506006600080600281111561073857610737611827565b5b600281111561074a57610749611827565b5b8152602001908152602001600020600081548092919061076990611991565b91905055506109a2565b6001600281111561078757610786611827565b5b82600281111561079a57610799611827565b5b036108b457600a60066000600160028111156107b9576107b8611827565b5b60028111156107cb576107ca611827565b5b8152602001908152602001600020541061081a576040517f08c379a000000000000000000000000000000000000000000000000000000000815260040161081190611a25565b60405180910390fd5b600660006001600281111561083257610831611827565b5b600281111561084457610843611827565b5b815260200190815260200160002054603361085f919061195d565b9050600660006001600281111561087957610878611827565b5b600281111561088b5761088a611827565b5b815260200190815260200160002060008154809291906108aa90611991565b91905055506109a1565b6002808111156108c7576108c6611827565b5b8260028111156108da576108d9611827565b5b036109a0576001600660006002808111156108f8576108f7611827565b5b600281111561090a57610909611827565b5b81526020019081526020016000205410610959576040517f08c379a000000000000000000000000000000000000000000000000000000000815260040161095090611a91565b60405180910390fd5b600660006002808111156109705761096f611827565b5b600281111561098257610981611827565b5b815260200190815260200160002054603d61099d919061195d565b90505b5b5b6109ac8382610c54565b505050565b600181565b6109c033826111eb565b6109ff576040517f08c379a00000000000000000000000000000000000000000000000000000000081526004016109f690611b23565b60405180910390fd5b8273ffffffffffffffffffffffffffffffffffffffff16610a1f82610e15565b73ffffffffffffffffffffffffffffffffffffffff1614610a75576040517f08c379a0000000000000000000000000000000000000000000000000000000008152600401610a6c90611bb5565b60405180910390fd5b600073ffffffffffffffffffffffffffffffffffffffff168273ffffffffffffffffffffffffffffffffffffffff1603610ae4576040517f08c379a0000000000000000000000000000000000000000000000000000000008152600401610adb90611c21565b60405180910390fd5b610aef600082611132565b6001600360008573ffffffffffffffffffffffffffffffffffffffff1673ffffffffffffffffffffffffffffffffffffffff1681526020019081526020016000206000828254610b3f9190611c41565b925050819055506001600360008473ffffffffffffffffffffffffffffffffffffffff1673ffffffffffffffffffffffffffffffffffffffff1681526020019081526020016000206000828254610b96919061195d565b92505081905550816002600083815260200190815260200160002060006101000a81548173ffffffffffffffffffffffffffffffffffffffff021916908373ffffffffffffffffffffffffffffffffffffffff160217905550808273ffffffffffffffffffffffffffffffffffffffff168473ffffffffffffffffffffffffffffffffffffffff167fddf252ad1be2c89b69c2b068fc378daa952ba7f163c4a11628f55a4df523b3ef60405160405180910390a4505050565b600181565b600073ffffffffffffffffffffffffffffffffffffffff168273ffffffffffffffffffffffffffffffffffffffff1603610cc3576040517f08c379a0000000000000000000000000000000000000000000000000000000008152600401610cba90611cc1565b60405180910390fd5b610ccc816110c6565b15610d0c576040517f08c379a0000000000000000000000000000000000000000000000000000000008152600401610d0390611d2d565b60405180910390fd5b6001600360008473ffffffffffffffffffffffffffffffffffffffff1673ffffffffffffffffffffffffffffffffffffffff1681526020019081526020016000206000828254610d5c919061195d565b92505081905550816002600083815260200190815260200160002060006101000a81548173ffffffffffffffffffffffffffffffffffffffff021916908373ffffffffffffffffffffffffffffffffffffffff160217905550808273ffffffffffffffffffffffffffffffffffffffff16600073ffffffffffffffffffffffffffffffffffffffff167fddf252ad1be2c89b69c2b068fc378daa952ba7f163c4a11628f55a4df523b3ef60405160405180910390a45050565b6000806002600084815260200190815260200160002060009054906101000a900473ffffffffffffffffffffffffffffffffffffffff169050600073ffffffffffffffffffffffffffffffffffffffff168173ffffffffffffffffffffffffffffffffffffffff1603610ebd576040517f08c379a0000000000000000000000000000000000000000000000000000000008152600401610eb490611dbf565b60405180910390fd5b80915050919050565b60008073ffffffffffffffffffffffffffffffffffffffff168273ffffffffffffffffffffffffffffffffffffffff1603610f36576040517f08c379a0000000000000000000000000000000000000000000000000000000008152600401610f2d90611e51565b60405180910390fd5b600360008373ffffffffffffffffffffffffffffffffffffffff1673ffffffffffffffffffffffffffffffffffffffff168152602001908152602001600020549050919050565b603d81565b600a81565b60018054610f949061168c565b80601f0160208091040260200160405190810160405280929190818152602001828054610fc09061168c565b801561100d5780601f10610fe25761010080835404028352916020019161100d565b820191906000526020600020905b815481529060010190602001808311610ff057829003601f168201915b505050505081565b60066020528060005260406000206000915090505481565b603381565b6000600560008473ffffffffffffffffffffffffffffffffffffffff1673ffffffffffffffffffffffffffffffffffffffff16815260200190815260200160002060008373ffffffffffffffffffffffffffffffffffffffff1673ffffffffffffffffffffffffffffffffffffffff16815260200190815260200160002060009054906101000a900460ff16905092915050565b60008073ffffffffffffffffffffffffffffffffffffffff166002600084815260200190815260200160002060009054906101000a900473ffffffffffffffffffffffffffffffffffffffff1673ffffffffffffffffffffffffffffffffffffffff1614159050919050565b816004600083815260200190815260200160002060006101000a81548173ffffffffffffffffffffffffffffffffffffffff021916908373ffffffffffffffffffffffffffffffffffffffff160217905550808273ffffffffffffffffffffffffffffffffffffffff166111a583610e15565b73ffffffffffffffffffffffffffffffffffffffff167f8c5be1e5ebec7d5bd14f71427d1e84f3dd0314c0f7b2291e5b200ac8c7c3b92560405160405180910390a45050565b60006111f6826110c6565b611235576040517f08c379a000000000000000000000000000000000000000000000000000000000815260040161122c90611ee3565b60405180910390fd5b600061124083610e15565b90508073ffffffffffffffffffffffffffffffffffffffff168473ffffffffffffffffffffffffffffffffffffffff1614806112af57508373ffffffffffffffffffffffffffffffffffffffff16611297846103ee565b73ffffffffffffffffffffffffffffffffffffffff16145b806112c057506112bf8185611032565b5b91505092915050565b600081519050919050565b600082825260208201905092915050565b60005b838110156113035780820151818401526020810190506112e8565b60008484015250505050565b6000601f19601f8301169050919050565b600061132b826112c9565b61133581856112d4565b93506113458185602086016112e5565b61134e8161130f565b840191505092915050565b600060208201905081810360008301526113738184611320565b905092915050565b600080fd5b6000819050919050565b61139381611380565b811461139e57600080fd5b50565b6000813590506113b08161138a565b92915050565b6000602082840312156113cc576113cb61137b565b5b60006113da848285016113a1565b91505092915050565b600073ffffffffffffffffffffffffffffffffffffffff82169050919050565b600061140e826113e3565b9050919050565b61141e81611403565b82525050565b60006020820190506114396000830184611415565b92915050565b61144881611403565b811461145357600080fd5b50565b6000813590506114658161143f565b92915050565b600080604083850312156114825761148161137b565b5b600061149085828601611456565b92505060206114a1858286016113a1565b9150509250929050565b6114b481611380565b82525050565b60006020820190506114cf60008301846114ab565b92915050565b600381106114e257600080fd5b50565b6000813590506114f4816114d5565b92915050565b600080604083850312156115115761151061137b565b5b600061151f85828601611456565b9250506020611530858286016114e5565b9150509250929050565b6000806000606084860312156115535761155261137b565b5b600061156186828701611456565b935050602061157286828701611456565b9250506040611583868287016113a1565b9150509250925092565b6000602082840312156115a3576115a261137b565b5b60006115b184828501611456565b91505092915050565b6000602082840312156115d0576115cf61137b565b5b60006115de848285016114e5565b91505092915050565b600080604083850312156115fe576115fd61137b565b5b600061160c85828601611456565b925050602061161d85828601611456565b9150509250929050565b60008115159050919050565b61163c81611627565b82525050565b60006020820190506116576000830184611633565b92915050565b7f4e487b7100000000000000000000000000000000000000000000000000000000600052602260045260246000fd5b600060028204905060018216806116a457607f821691505b6020821081036116b7576116b661165d565b5b50919050565b7f417070726f76656420717565727920666f72206e6f6e6578697374656e74207460008201527f6f6b656e00000000000000000000000000000000000000000000000000000000602082015250565b60006117196024836112d4565b9150611724826116bd565b604082019050919050565b600060208201905081810360008301526117488161170c565b9050919050565b7f417070726f76616c20746f2063757272656e74206f776e657200000000000000600082015250565b60006117856019836112d4565b91506117908261174f565b602082019050919050565b600060208201905081810360008301526117b481611778565b9050919050565b7f43616c6c6572206973206e6f7420746f6b656e206f776e657200000000000000600082015250565b60006117f16019836112d4565b91506117fc826117bb565b602082019050919050565b60006020820190508181036000830152611820816117e4565b9050919050565b7f4e487b7100000000000000000000000000000000000000000000000000000000600052602160045260246000fd5b7f496e76616c696420726172697479000000000000000000000000000000000000600082015250565b600061188c600e836112d4565b915061189782611856565b602082019050919050565b600060208201905081810360008301526118bb8161187f565b9050919050565b7f4d617820636f6d6d6f6e204e465473206d696e74656400000000000000000000600082015250565b60006118f86016836112d4565b9150611903826118c2565b602082019050919050565b60006020820190508181036000830152611927816118eb565b9050919050565b7f4e487b7100000000000000000000000000000000000000000000000000000000600052601160045260246000fd5b600061196882611380565b915061197383611380565b925082820190508082111561198b5761198a61192e565b5b92915050565b600061199c82611380565b91507fffffffffffffffffffffffffffffffffffffffffffffffffffffffffffffffff82036119ce576119cd61192e565b5b600182019050919050565b7f4d61782072617265204e465473206d696e746564000000000000000000000000600082015250565b6000611a0f6014836112d4565b9150611a1a826119d9565b602082019050919050565b60006020820190508181036000830152611a3e81611a02565b9050919050565b7f4d6178206c6567656e64617279204e465473206d696e74656400000000000000600082015250565b6000611a7b6019836112d4565b9150611a8682611a45565b602082019050919050565b60006020820190508181036000830152611aaa81611a6e565b9050919050565b7f5472616e736665722063616c6c6572206973206e6f74206f776e6572206e6f7260008201527f20617070726f7665640000000000000000000000000000000000000000000000602082015250565b6000611b0d6029836112d4565b9150611b1882611ab1565b604082019050919050565b60006020820190508181036000830152611b3c81611b00565b9050919050565b7f5472616e73666572206f6620746f6b656e2074686174206973206e6f74206f7760008201527f6e65640000000000000000000000000000000000000000000000000000000000602082015250565b6000611b9f6023836112d4565b9150611baa82611b43565b604082019050919050565b60006020820190508181036000830152611bce81611b92565b9050919050565b7f5472616e7366657220746f20746865207a65726f206164647265737300000000600082015250565b6000611c0b601c836112d4565b9150611c1682611bd5565b602082019050919050565b60006020820190508181036000830152611c3a81611bfe565b9050919050565b6000611c4c82611380565b9150611c5783611380565b9250828203905081811115611c6f57611c6e61192e565b5b92915050565b7f4d696e7420746f20746865207a65726f20616464726573730000000000000000600082015250565b6000611cab6018836112d4565b9150611cb682611c75565b602082019050919050565b60006020820190508181036000830152611cda81611c9e565b9050919050565b7f546f6b656e20616c7265616479206d696e746564000000000000000000000000600082015250565b6000611d176014836112d4565b9150611d2282611ce1565b602082019050919050565b60006020820190508181036000830152611d4681611d0a565b9050919050565b7f4f776e657220717565727920666f72206e6f6e6578697374656e7420746f6b6560008201527f6e00000000000000000000000000000000000000000000000000000000000000602082015250565b6000611da96021836112d4565b9150611db482611d4d565b604082019050919050565b60006020820190508181036000830152611dd881611d9c565b9050919050565b7f42616c616e636520717565727920666f7220746865207a65726f20616464726560008201527f7373000000000000000000000000000000000000000000000000000000000000602082015250565b6000611e3b6022836112d4565b9150611e4682611ddf565b604082019050919050565b60006020820190508181036000830152611e6a81611e2e565b9050919050565b7f4f70657261746f7220717565727920666f72206e6f6e6578697374656e74207460008201527f6f6b656e00000000000000000000000000000000000000000000000000000000602082015250565b6000611ecd6024836112d4565b9150611ed882611e71565b604082019050919050565b60006020820190508181036000830152611efc81611ec0565b905091905056fea26469706673582212209ebbbab0d4db5c9008a46a9a68692abc8045c302e3436ab3f819b40721e272e864736f6c634300081b0033",
  "linkReferences": {},
  "deployedLinkReferences": {}
}