{"contracts/CustomERC721.sol":{"CustomERC721":{"abi":[{"inputs":[{"internalType":"string","name":"_name","type":"string"},{"internalType":"string","name":"_symbol","type":"string"}],"stateMutability":"nonpayable","type":"constructor"},{"anonymous":false,"inputs":[{"indexed":true,"internalType":"address","name":"owner","type":"address"},{"indexed":true,"internalType":"address","name":"approved","type":"address"},{"indexed":true,"internalType":"uint256","name":"tokenId","type":"uint256"}],"name":"Approval","type":"event"},{"anonymous":false,"inputs":[{"indexed":true,"internalType":"address","name":"owner","type":"address"},{"indexed":true,"internalType":"address","name":"operator","type":"address"},{"indexed":false,"internalType":"bool","name":"approved","type":"bool"}],"name":"ApprovalForAll","type":"event"},{"anonymous":false,"inputs":[{"indexed":true,"internalType":"address","name":"from","type":"address"},{"indexed":true,"internalType":"address","name":"to","type":"address"},{"indexed":true,"internalType":"uint256","name":"tokenId","type":"uint256"}],"name":"Transfer","type":"event"},{"inputs":[{"internalType":"address","name":"to","type":"address"},{"internalType":"uint256","name":"tokenId","type":"uint256"}],"name":"approve","outputs":[],"stateMutability":"nonpayable","type":"function"},{"inputs":[{"internalType":"address","name":"owner","type":"address"}],"name":"balanceOf","outputs":[{"internalType":"uint256","name":"","type":"uint256"}],"stateMutability":"view","type":"function"},{"inputs":[{"internalType":"uint256","name":"tokenId","type":"uint256"}],"name":"getApproved","outputs":[{"internalType":"address","name":"","type":"address"}],"stateMutability":"view","type":"function"},{"inputs":[{"internalType":"address","name":"owner","type":"address"},{"internalType":"address","name":"operator","type":"address"}],"name":"isApprovedForAll","outputs":[{"internalType":"bool","name":"","type":"bool"}],"stateMutability":"view","type":"function"},{"inputs":[{"internalType":"address","name":"to","type":"address"},{"internalType":"uint256","name":"tokenId","type":"uint256"}],"name":"mint","outputs":[],"stateMutability":"nonpayable","type":"function"},{"inputs":[],"name":"name","outputs":[{"internalType":"string","name":"","type":"string"}],"stateMutability":"view","type":"function"},{"inputs":[{"internalType":"uint256","name":"tokenId","type":"uint256"}],"name":"ownerOf","outputs":[{"internalType":"address","name":"","type":"address"}],"stateMutability":"view","type":"function"},{"inputs":[],"name":"symbol","outputs":[{"internalType":"string","name":"","type":"string"}],"stateMutability":"view","type":"function"},{"inputs":[{"internalType":"address","name":"from","type":"address"},{"internalType":"address","name":"to","type":"address"},{"internalType":"uint256","name":"tokenId","type":"uint256"}],"name":"transferFrom","outputs":[],"stateMutability":"nonpayable","type":"function"}],"evm":{"bytecode":{"linkReferences":{},"object":"608060405234801561001057600080fd5b50604051611bd9380380611bd9833981810160405281019061003291906101ce565b81600090816100419190610467565b5080600190816100519190610467565b505050610539565b6000604051905090565b600080fd5b600080fd5b600080fd5b600080fd5b6000601f19601f8301169050919050565b7f4e487b7100000000000000000000000000000000000000000000000000000000600052604160045260246000fd5b6100c082610077565b810181811067ffffffffffffffff821117156100df576100de610088565b5b80604052505050565b60006100f2610059565b90506100fe82826100b7565b919050565b600067ffffffffffffffff82111561011e5761011d610088565b5b61012782610077565b9050602081019050919050565b60005b83811015610152578082015181840152602081019050610137565b60008484015250505050565b600061017161016c84610103565b6100e8565b90508281526020810184848401111561018d5761018c610072565b5b610198848285610134565b509392505050565b600082601f8301126101b5576101b461006d565b5b81516101c584826020860161015e565b91505092915050565b600080604083850312156101e5576101e4610063565b5b600083015167ffffffffffffffff81111561020357610202610068565b5b61020f858286016101a0565b925050602083015167ffffffffffffffff8111156102305761022f610068565b5b61023c858286016101a0565b9150509250929050565b600081519050919050565b7f4e487b7100000000000000000000000000000000000000000000000000000000600052602260045260246000fd5b6000600282049050600182168061029857607f821691505b6020821081036102ab576102aa610251565b5b50919050565b60008190508160005260206000209050919050565b60006020601f8301049050919050565b600082821b905092915050565b6000600883026103137fffffffffffffffffffffffffffffffffffffffffffffffffffffffffffffffff826102d6565b61031d86836102d6565b95508019841693508086168417925050509392505050565b6000819050919050565b6000819050919050565b600061036461035f61035a84610335565b61033f565b610335565b9050919050565b6000819050919050565b61037e83610349565b61039261038a8261036b565b8484546102e3565b825550505050565b600090565b6103a761039a565b6103b2818484610375565b505050565b5b818110156103d6576103cb60008261039f565b6001810190506103b8565b5050565b601f82111561041b576103ec816102b1565b6103f5846102c6565b81016020851015610404578190505b610418610410856102c6565b8301826103b7565b50505b505050565b600082821c905092915050565b600061043e60001984600802610420565b1980831691505092915050565b6000610457838361042d565b9150826002028217905092915050565b61047082610246565b67ffffffffffffffff81111561048957610488610088565b5b6104938254610280565b61049e8282856103da565b600060209050601f8311600181146104d157600084156104bf578287015190505b6104c9858261044b565b865550610531565b601f1984166104df866102b1565b60005b82811015610507578489015182556001820191506020850194506020810190506104e2565b868310156105245784890151610520601f89168261042d565b8355505b6001600288020188555050505b505050505050565b611691806105486000396000f3fe608060405234801561001057600080fd5b50600436106100935760003560e01c806340c10f191161006657806340c10f191461011e5780636352211e1461013a57806370a082311461016a57806395d89b411461019a578063e985e9c5146101b857610093565b806306fdde0314610098578063081812fc146100b6578063095ea7b3146100e657806323b872dd14610102575b600080fd5b6100a06101e8565b6040516100ad9190610d6a565b60405180910390f35b6100d060048036038101906100cb9190610dc7565b610276565b6040516100dd9190610e35565b60405180910390f35b61010060048036038101906100fb9190610e7c565b6102fb565b005b61011c60048036038101906101179190610ebc565b6103f3565b005b61013860048036038101906101339190610e7c565b61068c565b005b610154600480360381019061014f9190610dc7565b61084d565b6040516101619190610e35565b60405180910390f35b610184600480360381019061017f9190610f0f565b6108fe565b6040516101919190610f4b565b60405180910390f35b6101a26109b5565b6040516101af9190610d6a565b60405180910390f35b6101d260048036038101906101cd9190610f66565b610a43565b6040516101df9190610fc1565b60405180910390f35b600080546101f59061100b565b80601f01602080910402602001604051908101604052809291908181526020018280546102219061100b565b801561026e5780601f106102435761010080835404028352916020019161026e565b820191906000526020600020905b81548152906001019060200180831161025157829003601f168201915b505050505081565b600061028182610ad7565b6102c0576040517f08c379a00000000000000000000000000000000000000000000000000000000081526004016102b7906110ae565b60405180910390fd5b6004600083815260200190815260200160002060009054906101000a900473ffffffffffffffffffffffffffffffffffffffff169050919050565b60006103068261084d565b90508073ffffffffffffffffffffffffffffffffffffffff168373ffffffffffffffffffffffffffffffffffffffff1603610376576040517f08c379a000000000000000000000000000000000000000000000000000000000815260040161036d9061111a565b60405180910390fd5b8073ffffffffffffffffffffffffffffffffffffffff163373ffffffffffffffffffffffffffffffffffffffff16146103e4576040517f08c379a00000000000000000000000000000000000000000000000000000000081526004016103db90611186565b60405180910390fd5b6103ee8383610b43565b505050565b6103fd3382610bfc565b61043c576040517f08c379a000000000000000000000000000000000000000000000000000000000815260040161043390611218565b60405180910390fd5b8273ffffffffffffffffffffffffffffffffffffffff1661045c8261084d565b73ffffffffffffffffffffffffffffffffffffffff16146104b2576040517f08c379a00000000000000000000000000000000000000000000000000000000081526004016104a9906112aa565b60405180910390fd5b600073ffffffffffffffffffffffffffffffffffffffff168273ffffffffffffffffffffffffffffffffffffffff1603610521576040517f08c379a000000000000000000000000000000000000000000000000000000000815260040161051890611316565b60405180910390fd5b61052c600082610b43565b6001600360008573ffffffffffffffffffffffffffffffffffffffff1673ffffffffffffffffffffffffffffffffffffffff168152602001908152602001600020600082825461057c9190611365565b925050819055506001600360008473ffffffffffffffffffffffffffffffffffffffff1673ffffffffffffffffffffffffffffffffffffffff16815260200190815260200160002060008282546105d39190611399565b92505081905550816002600083815260200190815260200160002060006101000a81548173ffffffffffffffffffffffffffffffffffffffff021916908373ffffffffffffffffffffffffffffffffffffffff160217905550808273ffffffffffffffffffffffffffffffffffffffff168473ffffffffffffffffffffffffffffffffffffffff167fddf252ad1be2c89b69c2b068fc378daa952ba7f163c4a11628f55a4df523b3ef60405160405180910390a4505050565b600073ffffffffffffffffffffffffffffffffffffffff168273ffffffffffffffffffffffffffffffffffffffff16036106fb576040517f08c379a00000000000000000000000000000000000000000000000000000000081526004016106f290611419565b60405180910390fd5b61070481610ad7565b15610744576040517f08c379a000000000000000000000000000000000000000000000000000000000815260040161073b90611485565b60405180910390fd5b6001600360008473ffffffffffffffffffffffffffffffffffffffff1673ffffffffffffffffffffffffffffffffffffffff16815260200190815260200160002060008282546107949190611399565b92505081905550816002600083815260200190815260200160002060006101000a81548173ffffffffffffffffffffffffffffffffffffffff021916908373ffffffffffffffffffffffffffffffffffffffff160217905550808273ffffffffffffffffffffffffffffffffffffffff16600073ffffffffffffffffffffffffffffffffffffffff167fddf252ad1be2c89b69c2b068fc378daa952ba7f163c4a11628f55a4df523b3ef60405160405180910390a45050565b6000806002600084815260200190815260200160002060009054906101000a900473ffffffffffffffffffffffffffffffffffffffff169050600073ffffffffffffffffffffffffffffffffffffffff168173ffffffffffffffffffffffffffffffffffffffff16036108f5576040517f08c379a00000000000000000000000000000000000000000000000000000000081526004016108ec90611517565b60405180910390fd5b80915050919050565b60008073ffffffffffffffffffffffffffffffffffffffff168273ffffffffffffffffffffffffffffffffffffffff160361096e576040517f08c379a0000000000000000000000000000000000000000000000000000000008152600401610965906115a9565b60405180910390fd5b600360008373ffffffffffffffffffffffffffffffffffffffff1673ffffffffffffffffffffffffffffffffffffffff168152602001908152602001600020549050919050565b600180546109c29061100b565b80601f01602080910402602001604051908101604052809291908181526020018280546109ee9061100b565b8015610a3b5780601f10610a1057610100808354040283529160200191610a3b565b820191906000526020600020905b815481529060010190602001808311610a1e57829003601f168201915b505050505081565b6000600560008473ffffffffffffffffffffffffffffffffffffffff1673ffffffffffffffffffffffffffffffffffffffff16815260200190815260200160002060008373ffffffffffffffffffffffffffffffffffffffff1673ffffffffffffffffffffffffffffffffffffffff16815260200190815260200160002060009054906101000a900460ff16905092915050565b60008073ffffffffffffffffffffffffffffffffffffffff166002600084815260200190815260200160002060009054906101000a900473ffffffffffffffffffffffffffffffffffffffff1673ffffffffffffffffffffffffffffffffffffffff1614159050919050565b816004600083815260200190815260200160002060006101000a81548173ffffffffffffffffffffffffffffffffffffffff021916908373ffffffffffffffffffffffffffffffffffffffff160217905550808273ffffffffffffffffffffffffffffffffffffffff16610bb68361084d565b73ffffffffffffffffffffffffffffffffffffffff167f8c5be1e5ebec7d5bd14f71427d1e84f3dd0314c0f7b2291e5b200ac8c7c3b92560405160405180910390a45050565b6000610c0782610ad7565b610c46576040517f08c379a0000000000000000000000000000000000000000000000000000000008152600401610c3d9061163b565b60405180910390fd5b6000610c518361084d565b90508073ffffffffffffffffffffffffffffffffffffffff168473ffffffffffffffffffffffffffffffffffffffff161480610cc057508373ffffffffffffffffffffffffffffffffffffffff16610ca884610276565b73ffffffffffffffffffffffffffffffffffffffff16145b80610cd15750610cd08185610a43565b5b91505092915050565b600081519050919050565b600082825260208201905092915050565b60005b83811015610d14578082015181840152602081019050610cf9565b60008484015250505050565b6000601f19601f8301169050919050565b6000610d3c82610cda565b610d468185610ce5565b9350610d56818560208601610cf6565b610d5f81610d20565b840191505092915050565b60006020820190508181036000830152610d848184610d31565b905092915050565b600080fd5b6000819050919050565b610da481610d91565b8114610daf57600080fd5b50565b600081359050610dc181610d9b565b92915050565b600060208284031215610ddd57610ddc610d8c565b5b6000610deb84828501610db2565b91505092915050565b600073ffffffffffffffffffffffffffffffffffffffff82169050919050565b6000610e1f82610df4565b9050919050565b610e2f81610e14565b82525050565b6000602082019050610e4a6000830184610e26565b92915050565b610e5981610e14565b8114610e6457600080fd5b50565b600081359050610e7681610e50565b92915050565b60008060408385031215610e9357610e92610d8c565b5b6000610ea185828601610e67565b9250506020610eb285828601610db2565b9150509250929050565b600080600060608486031215610ed557610ed4610d8c565b5b6000610ee386828701610e67565b9350506020610ef486828701610e67565b9250506040610f0586828701610db2565b9150509250925092565b600060208284031215610f2557610f24610d8c565b5b6000610f3384828501610e67565b91505092915050565b610f4581610d91565b82525050565b6000602082019050610f606000830184610f3c565b92915050565b60008060408385031215610f7d57610f7c610d8c565b5b6000610f8b85828601610e67565b9250506020610f9c85828601610e67565b9150509250929050565b60008115159050919050565b610fbb81610fa6565b82525050565b6000602082019050610fd66000830184610fb2565b92915050565b7f4e487b7100000000000000000000000000000000000000000000000000000000600052602260045260246000fd5b6000600282049050600182168061102357607f821691505b60208210810361103657611035610fdc565b5b50919050565b7f417070726f76656420717565727920666f72206e6f6e6578697374656e74207460008201527f6f6b656e00000000000000000000000000000000000000000000000000000000602082015250565b6000611098602483610ce5565b91506110a38261103c565b604082019050919050565b600060208201905081810360008301526110c78161108b565b9050919050565b7f417070726f76616c20746f2063757272656e74206f776e657200000000000000600082015250565b6000611104601983610ce5565b915061110f826110ce565b602082019050919050565b60006020820190508181036000830152611133816110f7565b9050919050565b7f43616c6c6572206973206e6f7420746f6b656e206f776e657200000000000000600082015250565b6000611170601983610ce5565b915061117b8261113a565b602082019050919050565b6000602082019050818103600083015261119f81611163565b9050919050565b7f5472616e736665722063616c6c6572206973206e6f74206f776e6572206e6f7260008201527f20617070726f7665640000000000000000000000000000000000000000000000602082015250565b6000611202602983610ce5565b915061120d826111a6565b604082019050919050565b60006020820190508181036000830152611231816111f5565b9050919050565b7f5472616e73666572206f6620746f6b656e2074686174206973206e6f74206f7760008201527f6e65640000000000000000000000000000000000000000000000000000000000602082015250565b6000611294602383610ce5565b915061129f82611238565b604082019050919050565b600060208201905081810360008301526112c381611287565b9050919050565b7f5472616e7366657220746f20746865207a65726f206164647265737300000000600082015250565b6000611300601c83610ce5565b915061130b826112ca565b602082019050919050565b6000602082019050818103600083015261132f816112f3565b9050919050565b7f4e487b7100000000000000000000000000000000000000000000000000000000600052601160045260246000fd5b600061137082610d91565b915061137b83610d91565b925082820390508181111561139357611392611336565b5b92915050565b60006113a482610d91565b91506113af83610d91565b92508282019050808211156113c7576113c6611336565b5b92915050565b7f4d696e7420746f20746865207a65726f20616464726573730000000000000000600082015250565b6000611403601883610ce5565b915061140e826113cd565b602082019050919050565b60006020820190508181036000830152611432816113f6565b9050919050565b7f546f6b656e20616c7265616479206d696e746564000000000000000000000000600082015250565b600061146f601483610ce5565b915061147a82611439565b602082019050919050565b6000602082019050818103600083015261149e81611462565b9050919050565b7f4f776e657220717565727920666f72206e6f6e6578697374656e7420746f6b6560008201527f6e00000000000000000000000000000000000000000000000000000000000000602082015250565b6000611501602183610ce5565b915061150c826114a5565b604082019050919050565b60006020820190508181036000830152611530816114f4565b9050919050565b7f42616c616e636520717565727920666f7220746865207a65726f20616464726560008201527f7373000000000000000000000000000000000000000000000000000000000000602082015250565b6000611593602283610ce5565b915061159e82611537565b604082019050919050565b600060208201905081810360008301526115c281611586565b9050919050565b7f4f70657261746f7220717565727920666f72206e6f6e6578697374656e74207460008201527f6f6b656e00000000000000000000000000000000000000000000000000000000602082015250565b6000611625602483610ce5565b9150611630826115c9565b604082019050919050565b6000602082019050818103600083015261165481611618565b905091905056fea2646970667358221220526a3af926191b869d6836a4c2f644f5eea84bdd86f89a81a9f017efd18c381764736f6c634300081b0033","opcodes":"PUSH1 0x80 PUSH1 0x40 MSTORE CALLVALUE DUP1 ISZERO PUSH2 0x10 JUMPI PUSH1 0x0 DUP1 REVERT JUMPDEST POP PUSH1 0x40 MLOAD PUSH2 0x1BD9 CODESIZE SUB DUP1 PUSH2 0x1BD9 DUP4 CODECOPY DUP2 DUP2 ADD PUSH1 0x40 MSTORE DUP2 ADD SWAP1 PUSH2 0x32 SWAP2 SWAP1 PUSH2 0x1CE JUMP JUMPDEST DUP2 PUSH1 0x0 SWAP1 DUP2 PUSH2 0x41 SWAP2 SWAP1 PUSH2 0x467 JUMP JUMPDEST POP DUP1 PUSH1 0x1 SWAP1 DUP2 PUSH2 0x51 SWAP2 SWAP1 PUSH2 0x467 JUMP JUMPDEST POP POP POP PUSH2 0x539 JUMP JUMPDEST PUSH1 0x0 PUSH1 0x40 MLOAD SWAP1 POP SWAP1 JUMP JUMPDEST PUSH1 0x0 DUP1 REVERT JUMPDEST PUSH1 0x0 DUP1 REVERT JUMPDEST PUSH1 0x0 DUP1 REVERT JUMPDEST PUSH1 0x0 DUP1 REVERT JUMPDEST PUSH1 0x0 PUSH1 0x1F NOT PUSH1 0x1F DUP4 ADD AND SWAP1 POP SWAP2 SWAP1 POP JUMP JUMPDEST PUSH32 0x4E487B7100000000000000000000000000000000000000000000000000000000 PUSH1 0x0 MSTORE PUSH1 0x41 PUSH1 0x4 MSTORE PUSH1 0x24 PUSH1 0x0 REVERT JUMPDEST PUSH2 0xC0 DUP3 PUSH2 0x77 JUMP JUMPDEST DUP2 ADD DUP2 DUP2 LT PUSH8 0xFFFFFFFFFFFFFFFF DUP3 GT OR ISZERO PUSH2 0xDF JUMPI PUSH2 0xDE PUSH2 0x88 JUMP JUMPDEST JUMPDEST DUP1 PUSH1 0x40 MSTORE POP POP POP JUMP JUMPDEST PUSH1 0x0 PUSH2 0xF2 PUSH2 0x59 JUMP JUMPDEST SWAP1 POP PUSH2 0xFE DUP3 DUP3 PUSH2 0xB7 JUMP JUMPDEST SWAP2 SWAP1 POP JUMP JUMPDEST PUSH1 0x0 PUSH8 0xFFFFFFFFFFFFFFFF DUP3 GT ISZERO PUSH2 0x11E JUMPI PUSH2 0x11D PUSH2 0x88 JUMP JUMPDEST JUMPDEST PUSH2 0x127 DUP3 PUSH2 0x77 JUMP JUMPDEST SWAP1 POP PUSH1 0x20 DUP2 ADD SWAP1 POP SWAP2 SWAP1 POP JUMP JUMPDEST PUSH1 0x0 JUMPDEST DUP4 DUP2 LT ISZERO PUSH2 0x152 JUMPI DUP1 DUP3 ADD MLOAD DUP2 DUP5 ADD MSTORE PUSH1 0x20 DUP2 ADD SWAP1 POP PUSH2 0x137 JUMP JUMPDEST PUSH1 0x0 DUP5 DUP5 ADD MSTORE POP POP POP POP JUMP JUMPDEST PUSH1 0x0 PUSH2 0x171 PUSH2 0x16C DUP5 PUSH2 0x103 JUMP JUMPDEST PUSH2 0xE8 JUMP JUMPDEST SWAP1 POP DUP3 DUP2 MSTORE PUSH1 0x20 DUP2 ADD DUP5 DUP5 DUP5 ADD GT ISZERO PUSH2 0x18D JUMPI PUSH2 0x18C PUSH2 0x72 JUMP JUMPDEST JUMPDEST PUSH2 0x198 DUP5 DUP3 DUP6 PUSH2 0x134 JUMP JUMPDEST POP SWAP4 SWAP3 POP POP POP JUMP JUMPDEST PUSH1 0x0 DUP3 PUSH1 0x1F DUP4 ADD SLT PUSH2 0x1B5 JUMPI PUSH2 0x1B4 PUSH2 0x6D JUMP JUMPDEST JUMPDEST DUP2 MLOAD PUSH2 0x1C5 DUP5 DUP3 PUSH1 0x20 DUP7 ADD PUSH2 0x15E JUMP JUMPDEST SWAP2 POP POP SWAP3 SWAP2 POP POP JUMP JUMPDEST PUSH1 0x0 DUP1 PUSH1 0x40 DUP4 DUP6 SUB SLT ISZERO PUSH2 0x1E5 JUMPI PUSH2 0x1E4 PUSH2 0x63 JUMP JUMPDEST JUMPDEST PUSH1 0x0 DUP4 ADD MLOAD PUSH8 0xFFFFFFFFFFFFFFFF DUP2 GT ISZERO PUSH2 0x203 JUMPI PUSH2 0x202 PUSH2 0x68 JUMP JUMPDEST JUMPDEST PUSH2 0x20F DUP6 DUP3 DUP7 ADD PUSH2 0x1A0 JUMP JUMPDEST SWAP3 POP POP PUSH1 0x20 DUP4 ADD MLOAD PUSH8 0xFFFFFFFFFFFFFFFF DUP2 GT ISZERO PUSH2 0x230 JUMPI PUSH2 0x22F PUSH2 0x68 JUMP JUMPDEST JUMPDEST PUSH2 0x23C DUP6 DUP3 DUP7 ADD PUSH2 0x1A0 JUMP JUMPDEST SWAP2 POP POP SWAP3 POP SWAP3 SWAP1 POP JUMP JUMPDEST PUSH1 0x0 DUP2 MLOAD SWAP1 POP SWAP2 SWAP1 POP JUMP JUMPDEST PUSH32 0x4E487B7100000000000000000000000000000000000000000000000000000000 PUSH1 0x0 MSTORE PUSH1 0x22 PUSH1 0x4 MSTORE PUSH1 0x24 PUSH1 0x0 REVERT JUMPDEST PUSH1 0x0 PUSH1 0x2 DUP3 DIV SWAP1 POP PUSH1 0x1 DUP3 AND DUP1 PUSH2 0x298 JUMPI PUSH1 0x7F DUP3 AND SWAP2 POP JUMPDEST PUSH1 0x20 DUP3 LT DUP2 SUB PUSH2 0x2AB JUMPI PUSH2 0x2AA PUSH2 0x251 JUMP JUMPDEST JUMPDEST POP SWAP2 SWAP1 POP JUMP JUMPDEST PUSH1 0x0 DUP2 SWAP1 POP DUP2 PUSH1 0x0 MSTORE PUSH1 0x20 PUSH1 0x0 KECCAK256 SWAP1 POP SWAP2 SWAP1 POP JUMP JUMPDEST PUSH1 0x0 PUSH1 0x20 PUSH1 0x1F DUP4 ADD DIV SWAP1 POP SWAP2 SWAP1 POP JUMP JUMPDEST PUSH1 0x0 DUP3 DUP3 SHL SWAP1 POP SWAP3 SWAP2 POP POP JUMP JUMPDEST PUSH1 0x0 PUSH1 0x8 DUP4 MUL PUSH2 0x313 PUSH32 0xFFFFFFFFFFFFFFFFFFFFFFFFFFFFFFFFFFFFFFFFFFFFFFFFFFFFFFFFFFFFFFFF DUP3 PUSH2 0x2D6 JUMP JUMPDEST PUSH2 0x31D DUP7 DUP4 PUSH2 0x2D6 JUMP JUMPDEST SWAP6 POP DUP1 NOT DUP5 AND SWAP4 POP DUP1 DUP7 AND DUP5 OR SWAP3 POP POP POP SWAP4 SWAP3 POP POP POP JUMP JUMPDEST PUSH1 0x0 DUP2 SWAP1 POP SWAP2 SWAP1 POP JUMP JUMPDEST PUSH1 0x0 DUP2 SWAP1 POP SWAP2 SWAP1 POP JUMP JUMPDEST PUSH1 0x0 PUSH2 0x364 PUSH2 0x35F PUSH2 0x35A DUP5 PUSH2 0x335 JUMP JUMPDEST PUSH2 0x33F JUMP JUMPDEST PUSH2 0x335 JUMP JUMPDEST SWAP1 POP SWAP2 SWAP1 POP JUMP JUMPDEST PUSH1 0x0 DUP2 SWAP1 POP SWAP2 SWAP1 POP JUMP JUMPDEST PUSH2 0x37E DUP4 PUSH2 0x349 JUMP JUMPDEST PUSH2 0x392 PUSH2 0x38A DUP3 PUSH2 0x36B JUMP JUMPDEST DUP5 DUP5 SLOAD PUSH2 0x2E3 JUMP JUMPDEST DUP3 SSTORE POP POP POP POP JUMP JUMPDEST PUSH1 0x0 SWAP1 JUMP JUMPDEST PUSH2 0x3A7 PUSH2 0x39A JUMP JUMPDEST PUSH2 0x3B2 DUP2 DUP5 DUP5 PUSH2 0x375 JUMP JUMPDEST POP POP POP JUMP JUMPDEST JUMPDEST DUP2 DUP2 LT ISZERO PUSH2 0x3D6 JUMPI PUSH2 0x3CB PUSH1 0x0 DUP3 PUSH2 0x39F JUMP JUMPDEST PUSH1 0x1 DUP2 ADD SWAP1 POP PUSH2 0x3B8 JUMP JUMPDEST POP POP JUMP JUMPDEST PUSH1 0x1F DUP3 GT ISZERO PUSH2 0x41B JUMPI PUSH2 0x3EC DUP2 PUSH2 0x2B1 JUMP JUMPDEST PUSH2 0x3F5 DUP5 PUSH2 0x2C6 JUMP JUMPDEST DUP2 ADD PUSH1 0x20 DUP6 LT ISZERO PUSH2 0x404 JUMPI DUP2 SWAP1 POP JUMPDEST PUSH2 0x418 PUSH2 0x410 DUP6 PUSH2 0x2C6 JUMP JUMPDEST DUP4 ADD DUP3 PUSH2 0x3B7 JUMP JUMPDEST POP POP JUMPDEST POP POP POP JUMP JUMPDEST PUSH1 0x0 DUP3 DUP3 SHR SWAP1 POP SWAP3 SWAP2 POP POP JUMP JUMPDEST PUSH1 0x0 PUSH2 0x43E PUSH1 0x0 NOT DUP5 PUSH1 0x8 MUL PUSH2 0x420 JUMP JUMPDEST NOT DUP1 DUP4 AND SWAP2 POP POP SWAP3 SWAP2 POP POP JUMP JUMPDEST PUSH1 0x0 PUSH2 0x457 DUP4 DUP4 PUSH2 0x42D JUMP JUMPDEST SWAP2 POP DUP3 PUSH1 0x2 MUL DUP3 OR SWAP1 POP SWAP3 SWAP2 POP POP JUMP JUMPDEST PUSH2 0x470 DUP3 PUSH2 0x246 JUMP JUMPDEST PUSH8 0xFFFFFFFFFFFFFFFF DUP2 GT ISZERO PUSH2 0x489 JUMPI PUSH2 0x488 PUSH2 0x88 JUMP JUMPDEST JUMPDEST PUSH2 0x493 DUP3 SLOAD PUSH2 0x280 JUMP JUMPDEST PUSH2 0x49E DUP3 DUP3 DUP6 PUSH2 0x3DA JUMP JUMPDEST PUSH1 0x0 PUSH1 0x20 SWAP1 POP PUSH1 0x1F DUP4 GT PUSH1 0x1 DUP2 EQ PUSH2 0x4D1 JUMPI PUSH1 0x0 DUP5 ISZERO PUSH2 0x4BF JUMPI DUP3 DUP8 ADD MLOAD SWAP1 POP JUMPDEST PUSH2 0x4C9 DUP6 DUP3 PUSH2 0x44B JUMP JUMPDEST DUP7 SSTORE POP PUSH2 0x531 JUMP JUMPDEST PUSH1 0x1F NOT DUP5 AND PUSH2 0x4DF DUP7 PUSH2 0x2B1 JUMP JUMPDEST PUSH1 0x0 JUMPDEST DUP3 DUP2 LT ISZERO PUSH2 0x507 JUMPI DUP5 DUP10 ADD MLOAD DUP3 SSTORE PUSH1 0x1 DUP3 ADD SWAP2 POP PUSH1 0x20 DUP6 ADD SWAP5 POP PUSH1 0x20 DUP2 ADD SWAP1 POP PUSH2 0x4E2 JUMP JUMPDEST DUP7 DUP4 LT ISZERO PUSH2 0x524 JUMPI DUP5 DUP10 ADD MLOAD PUSH2 0x520 PUSH1 0x1F DUP10 AND DUP3 PUSH2 0x42D JUMP JUMPDEST DUP4 SSTORE POP JUMPDEST PUSH1 0x1 PUSH1 0x2 DUP9 MUL ADD DUP9 SSTORE POP POP POP JUMPDEST POP POP POP POP POP POP JUMP JUMPDEST PUSH2 0x1691 DUP1 PUSH2 0x548 PUSH1 0x0 CODECOPY PUSH1 0x0 RETURN INVALID PUSH1 0x80 PUSH1 0x40 MSTORE CALLVALUE DUP1 ISZERO PUSH2 0x10 JUMPI PUSH1 0x0 DUP1 REVERT JUMPDEST POP PUSH1 0x4 CALLDATASIZE LT PUSH2 0x93 JUMPI PUSH1 0x0 CALLDATALOAD PUSH1 0xE0 SHR DUP1 PUSH4 0x40C10F19 GT PUSH2 0x66 JUMPI DUP1 PUSH4 0x40C10F19 EQ PUSH2 0x11E JUMPI DUP1 PUSH4 0x6352211E EQ PUSH2 0x13A JUMPI DUP1 PUSH4 0x70A08231 EQ PUSH2 0x16A JUMPI DUP1 PUSH4 0x95D89B41 EQ PUSH2 0x19A JUMPI DUP1 PUSH4 0xE985E9C5 EQ PUSH2 0x1B8 JUMPI PUSH2 0x93 JUMP JUMPDEST DUP1 PUSH4 0x6FDDE03 EQ PUSH2 0x98 JUMPI DUP1 PUSH4 0x81812FC EQ PUSH2 0xB6 JUMPI DUP1 PUSH4 0x95EA7B3 EQ PUSH2 0xE6 JUMPI DUP1 PUSH4 0x23B872DD EQ PUSH2 0x102 JUMPI JUMPDEST PUSH1 0x0 DUP1 REVERT JUMPDEST PUSH2 0xA0 PUSH2 0x1E8 JUMP JUMPDEST PUSH1 0x40 MLOAD PUSH2 0xAD SWAP2 SWAP1 PUSH2 0xD6A JUMP JUMPDEST PUSH1 0x40 MLOAD DUP1 SWAP2 SUB SWAP1 RETURN JUMPDEST PUSH2 0xD0 PUSH1 0x4 DUP1 CALLDATASIZE SUB DUP2 ADD SWAP1 PUSH2 0xCB SWAP2 SWAP1 PUSH2 0xDC7 JUMP JUMPDEST PUSH2 0x276 JUMP JUMPDEST PUSH1 0x40 MLOAD PUSH2 0xDD SWAP2 SWAP1 PUSH2 0xE35 JUMP JUMPDEST PUSH1 0x40 MLOAD DUP1 SWAP2 SUB SWAP1 RETURN JUMPDEST PUSH2 0x100 PUSH1 0x4 DUP1 CALLDATASIZE SUB DUP2 ADD SWAP1 PUSH2 0xFB SWAP2 SWAP1 PUSH2 0xE7C JUMP JUMPDEST PUSH2 0x2FB JUMP JUMPDEST STOP JUMPDEST PUSH2 0x11C PUSH1 0x4 DUP1 CALLDATASIZE SUB DUP2 ADD SWAP1 PUSH2 0x117 SWAP2 SWAP1 PUSH2 0xEBC JUMP JUMPDEST PUSH2 0x3F3 JUMP JUMPDEST STOP JUMPDEST PUSH2 0x138 PUSH1 0x4 DUP1 CALLDATASIZE SUB DUP2 ADD SWAP1 PUSH2 0x133 SWAP2 SWAP1 PUSH2 0xE7C JUMP JUMPDEST PUSH2 0x68C JUMP JUMPDEST STOP JUMPDEST PUSH2 0x154 PUSH1 0x4 DUP1 CALLDATASIZE SUB DUP2 ADD SWAP1 PUSH2 0x14F SWAP2 SWAP1 PUSH2 0xDC7 JUMP JUMPDEST PUSH2 0x84D JUMP JUMPDEST PUSH1 0x40 MLOAD PUSH2 0x161 SWAP2 SWAP1 PUSH2 0xE35 JUMP JUMPDEST PUSH1 0x40 MLOAD DUP1 SWAP2 SUB SWAP1 RETURN JUMPDEST PUSH2 0x184 PUSH1 0x4 DUP1 CALLDATASIZE SUB DUP2 ADD SWAP1 PUSH2 0x17F SWAP2 SWAP1 PUSH2 0xF0F JUMP JUMPDEST PUSH2 0x8FE JUMP JUMPDEST PUSH1 0x40 MLOAD PUSH2 0x191 SWAP2 SWAP1 PUSH2 0xF4B JUMP JUMPDEST PUSH1 0x40 MLOAD DUP1 SWAP2 SUB SWAP1 RETURN JUMPDEST PUSH2 0x1A2 PUSH2 0x9B5 JUMP JUMPDEST PUSH1 0x40 MLOAD PUSH2 0x1AF SWAP2 SWAP1 PUSH2 0xD6A JUMP JUMPDEST PUSH1 0x40 MLOAD DUP1 SWAP2 SUB SWAP1 RETURN JUMPDEST PUSH2 0x1D2 PUSH1 0x4 DUP1 CALLDATASIZE SUB DUP2 ADD SWAP1 PUSH2 0x1CD SWAP2 SWAP1 PUSH2 0xF66 JUMP JUMPDEST PUSH2 0xA43 JUMP JUMPDEST PUSH1 0x40 MLOAD PUSH2 0x1DF SWAP2 SWAP1 PUSH2 0xFC1 JUMP JUMPDEST PUSH1 0x40 MLOAD DUP1 SWAP2 SUB SWAP1 RETURN JUMPDEST PUSH1 0x0 DUP1 SLOAD PUSH2 0x1F5 SWAP1 PUSH2 0x100B JUMP JUMPDEST DUP1 PUSH1 0x1F ADD PUSH1 0x20 DUP1 SWAP2 DIV MUL PUSH1 0x20 ADD PUSH1 0x40 MLOAD SWAP1 DUP2 ADD PUSH1 0x40 MSTORE DUP1 SWAP3 SWAP2 SWAP1 DUP2 DUP2 MSTORE PUSH1 0x20 ADD DUP3 DUP1 SLOAD PUSH2 0x221 SWAP1 PUSH2 0x100B JUMP JUMPDEST DUP1 ISZERO PUSH2 0x26E JUMPI DUP1 PUSH1 0x1F LT PUSH2 0x243 JUMPI PUSH2 0x100 DUP1 DUP4 SLOAD DIV MUL DUP4 MSTORE SWAP2 PUSH1 0x20 ADD SWAP2 PUSH2 0x26E JUMP JUMPDEST DUP3 ADD SWAP2 SWAP1 PUSH1 0x0 MSTORE PUSH1 0x20 PUSH1 0x0 KECCAK256 SWAP1 JUMPDEST DUP2 SLOAD DUP2 MSTORE SWAP1 PUSH1 0x1 ADD SWAP1 PUSH1 0x20 ADD DUP1 DUP4 GT PUSH2 0x251 JUMPI DUP3 SWAP1 SUB PUSH1 0x1F AND DUP3 ADD SWAP2 JUMPDEST POP POP POP POP POP DUP2 JUMP JUMPDEST PUSH1 0x0 PUSH2 0x281 DUP3 PUSH2 0xAD7 JUMP JUMPDEST PUSH2 0x2C0 JUMPI PUSH1 0x40 MLOAD PUSH32 0x8C379A000000000000000000000000000000000000000000000000000000000 DUP2 MSTORE PUSH1 0x4 ADD PUSH2 0x2B7 SWAP1 PUSH2 0x10AE JUMP JUMPDEST PUSH1 0x40 MLOAD DUP1 SWAP2 SUB SWAP1 REVERT JUMPDEST PUSH1 0x4 PUSH1 0x0 DUP4 DUP2 MSTORE PUSH1 0x20 ADD SWAP1 DUP2 MSTORE PUSH1 0x20 ADD PUSH1 0x0 KECCAK256 PUSH1 0x0 SWAP1 SLOAD SWAP1 PUSH2 0x100 EXP SWAP1 DIV PUSH20 0xFFFFFFFFFFFFFFFFFFFFFFFFFFFFFFFFFFFFFFFF AND SWAP1 POP SWAP2 SWAP1 POP JUMP JUMPDEST PUSH1 0x0 PUSH2 0x306 DUP3 PUSH2 0x84D JUMP JUMPDEST SWAP1 POP DUP1 PUSH20 0xFFFFFFFFFFFFFFFFFFFFFFFFFFFFFFFFFFFFFFFF AND DUP4 PUSH20 0xFFFFFFFFFFFFFFFFFFFFFFFFFFFFFFFFFFFFFFFF AND SUB PUSH2 0x376 JUMPI PUSH1 0x40 MLOAD PUSH32 0x8C379A000000000000000000000000000000000000000000000000000000000 DUP2 MSTORE PUSH1 0x4 ADD PUSH2 0x36D SWAP1 PUSH2 0x111A JUMP JUMPDEST PUSH1 0x40 MLOAD DUP1 SWAP2 SUB SWAP1 REVERT JUMPDEST DUP1 PUSH20 0xFFFFFFFFFFFFFFFFFFFFFFFFFFFFFFFFFFFFFFFF AND CALLER PUSH20 0xFFFFFFFFFFFFFFFFFFFFFFFFFFFFFFFFFFFFFFFF AND EQ PUSH2 0x3E4 JUMPI PUSH1 0x40 MLOAD PUSH32 0x8C379A000000000000000000000000000000000000000000000000000000000 DUP2 MSTORE PUSH1 0x4 ADD PUSH2 0x3DB SWAP1 PUSH2 0x1186 JUMP JUMPDEST PUSH1 0x40 MLOAD DUP1 SWAP2 SUB SWAP1 REVERT JUMPDEST PUSH2 0x3EE DUP4 DUP4 PUSH2 0xB43 JUMP JUMPDEST POP POP POP JUMP JUMPDEST PUSH2 0x3FD CALLER DUP3 PUSH2 0xBFC JUMP JUMPDEST PUSH2 0x43C JUMPI PUSH1 0x40 MLOAD PUSH32 0x8C379A000000000000000000000000000000000000000000000000000000000 DUP2 MSTORE PUSH1 0x4 ADD PUSH2 0x433 SWAP1 PUSH2 0x1218 JUMP JUMPDEST PUSH1 0x40 MLOAD DUP1 SWAP2 SUB SWAP1 REVERT JUMPDEST DUP3 PUSH20 0xFFFFFFFFFFFFFFFFFFFFFFFFFFFFFFFFFFFFFFFF AND PUSH2 0x45C DUP3 PUSH2 0x84D JUMP JUMPDEST PUSH20 0xFFFFFFFFFFFFFFFFFFFFFFFFFFFFFFFFFFFFFFFF AND EQ PUSH2 0x4B2 JUMPI PUSH1 0x40 MLOAD PUSH32 0x8C379A000000000000000000000000000000000000000000000000000000000 DUP2 MSTORE PUSH1 0x4 ADD PUSH2 0x4A9 SWAP1 PUSH2 0x12AA JUMP JUMPDEST PUSH1 0x40 MLOAD DUP1 SWAP2 SUB SWAP1 REVERT JUMPDEST PUSH1 0x0 PUSH20 0xFFFFFFFFFFFFFFFFFFFFFFFFFFFFFFFFFFFFFFFF AND DUP3 PUSH20 0xFFFFFFFFFFFFFFFFFFFFFFFFFFFFFFFFFFFFFFFF AND SUB PUSH2 0x521 JUMPI PUSH1 0x40 MLOAD PUSH32 0x8C379A000000000000000000000000000000000000000000000000000000000 DUP2 MSTORE PUSH1 0x4 ADD PUSH2 0x518 SWAP1 PUSH2 0x1316 JUMP JUMPDEST PUSH1 0x40 MLOAD DUP1 SWAP2 SUB SWAP1 REVERT JUMPDEST PUSH2 0x52C PUSH1 0x0 DUP3 PUSH2 0xB43 JUMP JUMPDEST PUSH1 0x1 PUSH1 0x3 PUSH1 0x0 DUP6 PUSH20 0xFFFFFFFFFFFFFFFFFFFFFFFFFFFFFFFFFFFFFFFF AND PUSH20 0xFFFFFFFFFFFFFFFFFFFFFFFFFFFFFFFFFFFFFFFF AND DUP2 MSTORE PUSH1 0x20 ADD SWAP1 DUP2 MSTORE PUSH1 0x20 ADD PUSH1 0x0 KECCAK256 PUSH1 0x0 DUP3 DUP3 SLOAD PUSH2 0x57C SWAP2 SWAP1 PUSH2 0x1365 JUMP JUMPDEST SWAP3 POP POP DUP2 SWAP1 SSTORE POP PUSH1 0x1 PUSH1 0x3 PUSH1 0x0 DUP5 PUSH20 0xFFFFFFFFFFFFFFFFFFFFFFFFFFFFFFFFFFFFFFFF AND PUSH20 0xFFFFFFFFFFFFFFFFFFFFFFFFFFFFFFFFFFFFFFFF AND DUP2 MSTORE PUSH1 0x20 ADD SWAP1 DUP2 MSTORE PUSH1 0x20 ADD PUSH1 0x0 KECCAK256 PUSH1 0x0 DUP3 DUP3 SLOAD PUSH2 0x5D3 SWAP2 SWAP1 PUSH2 0x1399 JUMP JUMPDEST SWAP3 POP POP DUP2 SWAP1 SSTORE POP DUP2 PUSH1 0x2 PUSH1 0x0 DUP4 DUP2 MSTORE PUSH1 0x20 ADD SWAP1 DUP2 MSTORE PUSH1 0x20 ADD PUSH1 0x0 KECCAK256 PUSH1 0x0 PUSH2 0x100 EXP DUP2 SLOAD DUP2 PUSH20 0xFFFFFFFFFFFFFFFFFFFFFFFFFFFFFFFFFFFFFFFF MUL NOT AND SWAP1 DUP4 PUSH20 0xFFFFFFFFFFFFFFFFFFFFFFFFFFFFFFFFFFFFFFFF AND MUL OR SWAP1 SSTORE POP DUP1 DUP3 PUSH20 0xFFFFFFFFFFFFFFFFFFFFFFFFFFFFFFFFFFFFFFFF AND DUP5 PUSH20 0xFFFFFFFFFFFFFFFFFFFFFFFFFFFFFFFFFFFFFFFF AND PUSH32 0xDDF252AD1BE2C89B69C2B068FC378DAA952BA7F163C4A11628F55A4DF523B3EF PUSH1 0x40 MLOAD PUSH1 0x40 MLOAD DUP1 SWAP2 SUB SWAP1 LOG4 POP POP POP JUMP JUMPDEST PUSH1 0x0 PUSH20 0xFFFFFFFFFFFFFFFFFFFFFFFFFFFFFFFFFFFFFFFF AND DUP3 PUSH20 0xFFFFFFFFFFFFFFFFFFFFFFFFFFFFFFFFFFFFFFFF AND SUB PUSH2 0x6FB JUMPI PUSH1 0x40 MLOAD PUSH32 0x8C379A000000000000000000000000000000000000000000000000000000000 DUP2 MSTORE PUSH1 0x4 ADD PUSH2 0x6F2 SWAP1 PUSH2 0x1419 JUMP JUMPDEST PUSH1 0x40 MLOAD DUP1 SWAP2 SUB SWAP1 REVERT JUMPDEST PUSH2 0x704 DUP2 PUSH2 0xAD7 JUMP JUMPDEST ISZERO PUSH2 0x744 JUMPI PUSH1 0x40 MLOAD PUSH32 0x8C379A000000000000000000000000000000000000000000000000000000000 DUP2 MSTORE PUSH1 0x4 ADD PUSH2 0x73B SWAP1 PUSH2 0x1485 JUMP JUMPDEST PUSH1 0x40 MLOAD DUP1 SWAP2 SUB SWAP1 REVERT JUMPDEST PUSH1 0x1 PUSH1 0x3 PUSH1 0x0 DUP5 PUSH20 0xFFFFFFFFFFFFFFFFFFFFFFFFFFFFFFFFFFFFFFFF AND PUSH20 0xFFFFFFFFFFFFFFFFFFFFFFFFFFFFFFFFFFFFFFFF AND DUP2 MSTORE PUSH1 0x20 ADD SWAP1 DUP2 MSTORE PUSH1 0x20 ADD PUSH1 0x0 KECCAK256 PUSH1 0x0 DUP3 DUP3 SLOAD PUSH2 0x794 SWAP2 SWAP1 PUSH2 0x1399 JUMP JUMPDEST SWAP3 POP POP DUP2 SWAP1 SSTORE POP DUP2 PUSH1 0x2 PUSH1 0x0 DUP4 DUP2 MSTORE PUSH1 0x20 ADD SWAP1 DUP2 MSTORE PUSH1 0x20 ADD PUSH1 0x0 KECCAK256 PUSH1 0x0 PUSH2 0x100 EXP DUP2 SLOAD DUP2 PUSH20 0xFFFFFFFFFFFFFFFFFFFFFFFFFFFFFFFFFFFFFFFF MUL NOT AND SWAP1 DUP4 PUSH20 0xFFFFFFFFFFFFFFFFFFFFFFFFFFFFFFFFFFFFFFFF AND MUL OR SWAP1 SSTORE POP DUP1 DUP3 PUSH20 0xFFFFFFFFFFFFFFFFFFFFFFFFFFFFFFFFFFFFFFFF AND PUSH1 0x0 PUSH20 0xFFFFFFFFFFFFFFFFFFFFFFFFFFFFFFFFFFFFFFFF AND PUSH32 0xDDF252AD1BE2C89B69C2B068FC378DAA952BA7F163C4A11628F55A4DF523B3EF PUSH1 0x40 MLOAD PUSH1 0x40 MLOAD DUP1 SWAP2 SUB SWAP1 LOG4 POP POP JUMP JUMPDEST PUSH1 0x0 DUP1 PUSH1 0x2 PUSH1 0x0 DUP5 DUP2 MSTORE PUSH1 0x20 ADD SWAP1 DUP2 MSTORE PUSH1 0x20 ADD PUSH1 0x0 KECCAK256 PUSH1 0x0 SWAP1 SLOAD SWAP1 PUSH2 0x100 EXP SWAP1 DIV PUSH20 0xFFFFFFFFFFFFFFFFFFFFFFFFFFFFFFFFFFFFFFFF AND SWAP1 POP PUSH1 0x0 PUSH20 0xFFFFFFFFFFFFFFFFFFFFFFFFFFFFFFFFFFFFFFFF AND DUP2 PUSH20 0xFFFFFFFFFFFFFFFFFFFFFFFFFFFFFFFFFFFFFFFF AND SUB PUSH2 0x8F5 JUMPI PUSH1 0x40 MLOAD PUSH32 0x8C379A000000000000000000000000000000000000000000000000000000000 DUP2 MSTORE PUSH1 0x4 ADD PUSH2 0x8EC SWAP1 PUSH2 0x1517 JUMP JUMPDEST PUSH1 0x40 MLOAD DUP1 SWAP2 SUB SWAP1 REVERT JUMPDEST DUP1 SWAP2 POP POP SWAP2 SWAP1 POP JUMP JUMPDEST PUSH1 0x0 DUP1 PUSH20 0xFFFFFFFFFFFFFFFFFFFFFFFFFFFFFFFFFFFFFFFF AND DUP3 PUSH20 0xFFFFFFFFFFFFFFFFFFFFFFFFFFFFFFFFFFFFFFFF AND SUB PUSH2 0x96E JUMPI PUSH1 0x40 MLOAD PUSH32 0x8C379A000000000000000000000000000000000000000000000000000000000 DUP2 MSTORE PUSH1 0x4 ADD PUSH2 0x965 SWAP1 PUSH2 0x15A9 JUMP JUMPDEST PUSH1 0x40 MLOAD DUP1 SWAP2 SUB SWAP1 REVERT JUMPDEST PUSH1 0x3 PUSH1 0x0 DUP4 PUSH20 0xFFFFFFFFFFFFFFFFFFFFFFFFFFFFFFFFFFFFFFFF AND PUSH20 0xFFFFFFFFFFFFFFFFFFFFFFFFFFFFFFFFFFFFFFFF AND DUP2 MSTORE PUSH1 0x20 ADD SWAP1 DUP2 MSTORE PUSH1 0x20 ADD PUSH1 0x0 KECCAK256 SLOAD SWAP1 POP SWAP2 SWAP1 POP JUMP JUMPDEST PUSH1 0x1 DUP1 SLOAD PUSH2 0x9C2 SWAP1 PUSH2 0x100B JUMP JUMPDEST DUP1 PUSH1 0x1F ADD PUSH1 0x20 DUP1 SWAP2 DIV MUL PUSH1 0x20 ADD PUSH1 0x40 MLOAD SWAP1 DUP2 ADD PUSH1 0x40 MSTORE DUP1 SWAP3 SWAP2 SWAP1 DUP2 DUP2 MSTORE PUSH1 0x20 ADD DUP3 DUP1 SLOAD PUSH2 0x9EE SWAP1 PUSH2 0x100B JUMP JUMPDEST DUP1 ISZERO PUSH2 0xA3B JUMPI DUP1 PUSH1 0x1F LT PUSH2 0xA10 JUMPI PUSH2 0x100 DUP1 DUP4 SLOAD DIV MUL DUP4 MSTORE SWAP2 PUSH1 0x20 ADD SWAP2 PUSH2 0xA3B JUMP JUMPDEST DUP3 ADD SWAP2 SWAP1 PUSH1 0x0 MSTORE PUSH1 0x20 PUSH1 0x0 KECCAK256 SWAP1 JUMPDEST DUP2 SLOAD DUP2 MSTORE SWAP1 PUSH1 0x1 ADD SWAP1 PUSH1 0x20 ADD DUP1 DUP4 GT PUSH2 0xA1E JUMPI DUP3 SWAP1 SUB PUSH1 0x1F AND DUP3 ADD SWAP2 JUMPDEST POP POP POP POP POP DUP2 JUMP JUMPDEST PUSH1 0x0 PUSH1 0x5 PUSH1 0x0 DUP5 PUSH20 0xFFFFFFFFFFFFFFFFFFFFFFFFFFFFFFFFFFFFFFFF AND PUSH20 0xFFFFFFFFFFFFFFFFFFFFFFFFFFFFFFFFFFFFFFFF AND DUP2 MSTORE PUSH1 0x20 ADD SWAP1 DUP2 MSTORE PUSH1 0x20 ADD PUSH1 0x0 KECCAK256 PUSH1 0x0 DUP4 PUSH20 0xFFFFFFFFFFFFFFFFFFFFFFFFFFFFFFFFFFFFFFFF AND PUSH20 0xFFFFFFFFFFFFFFFFFFFFFFFFFFFFFFFFFFFFFFFF AND DUP2 MSTORE PUSH1 0x20 ADD SWAP1 DUP2 MSTORE PUSH1 0x20 ADD PUSH1 0x0 KECCAK256 PUSH1 0x0 SWAP1 SLOAD SWAP1 PUSH2 0x100 EXP SWAP1 DIV PUSH1 0xFF AND SWAP1 POP SWAP3 SWAP2 POP POP JUMP JUMPDEST PUSH1 0x0 DUP1 PUSH20 0xFFFFFFFFFFFFFFFFFFFFFFFFFFFFFFFFFFFFFFFF AND PUSH1 0x2 PUSH1 0x0 DUP5 DUP2 MSTORE PUSH1 0x20 ADD SWAP1 DUP2 MSTORE PUSH1 0x20 ADD PUSH1 0x0 KECCAK256 PUSH1 0x0 SWAP1 SLOAD SWAP1 PUSH2 0x100 EXP SWAP1 DIV PUSH20 0xFFFFFFFFFFFFFFFFFFFFFFFFFFFFFFFFFFFFFFFF AND PUSH20 0xFFFFFFFFFFFFFFFFFFFFFFFFFFFFFFFFFFFFFFFF AND EQ ISZERO SWAP1 POP SWAP2 SWAP1 POP JUMP JUMPDEST DUP2 PUSH1 0x4 PUSH1 0x0 DUP4 DUP2 MSTORE PUSH1 0x20 ADD SWAP1 DUP2 MSTORE PUSH1 0x20 ADD PUSH1 0x0 KECCAK256 PUSH1 0x0 PUSH2 0x100 EXP DUP2 SLOAD DUP2 PUSH20 0xFFFFFFFFFFFFFFFFFFFFFFFFFFFFFFFFFFFFFFFF MUL NOT AND SWAP1 DUP4 PUSH20 0xFFFFFFFFFFFFFFFFFFFFFFFFFFFFFFFFFFFFFFFF AND MUL OR SWAP1 SSTORE POP DUP1 DUP3 PUSH20 0xFFFFFFFFFFFFFFFFFFFFFFFFFFFFFFFFFFFFFFFF AND PUSH2 0xBB6 DUP4 PUSH2 0x84D JUMP JUMPDEST PUSH20 0xFFFFFFFFFFFFFFFFFFFFFFFFFFFFFFFFFFFFFFFF AND PUSH32 0x8C5BE1E5EBEC7D5BD14F71427D1E84F3DD0314C0F7B2291E5B200AC8C7C3B925 PUSH1 0x40 MLOAD PUSH1 0x40 MLOAD DUP1 SWAP2 SUB SWAP1 LOG4 POP POP JUMP JUMPDEST PUSH1 0x0 PUSH2 0xC07 DUP3 PUSH2 0xAD7 JUMP JUMPDEST PUSH2 0xC46 JUMPI PUSH1 0x40 MLOAD PUSH32 0x8C379A000000000000000000000000000000000000000000000000000000000 DUP2 MSTORE PUSH1 0x4 ADD PUSH2 0xC3D SWAP1 PUSH2 0x163B JUMP JUMPDEST PUSH1 0x40 MLOAD DUP1 SWAP2 SUB SWAP1 REVERT JUMPDEST PUSH1 0x0 PUSH2 0xC51 DUP4 PUSH2 0x84D JUMP JUMPDEST SWAP1 POP DUP1 PUSH20 0xFFFFFFFFFFFFFFFFFFFFFFFFFFFFFFFFFFFFFFFF AND DUP5 PUSH20 0xFFFFFFFFFFFFFFFFFFFFFFFFFFFFFFFFFFFFFFFF AND EQ DUP1 PUSH2 0xCC0 JUMPI POP DUP4 PUSH20 0xFFFFFFFFFFFFFFFFFFFFFFFFFFFFFFFFFFFFFFFF AND PUSH2 0xCA8 DUP5 PUSH2 0x276 JUMP JUMPDEST PUSH20 0xFFFFFFFFFFFFFFFFFFFFFFFFFFFFFFFFFFFFFFFF AND EQ JUMPDEST DUP1 PUSH2 0xCD1 JUMPI POP PUSH2 0xCD0 DUP2 DUP6 PUSH2 0xA43 JUMP JUMPDEST JUMPDEST SWAP2 POP POP SWAP3 SWAP2 POP POP JUMP JUMPDEST PUSH1 0x0 DUP2 MLOAD SWAP1 POP SWAP2 SWAP1 POP JUMP JUMPDEST PUSH1 0x0 DUP3 DUP3 MSTORE PUSH1 0x20 DUP3 ADD SWAP1 POP SWAP3 SWAP2 POP POP JUMP JUMPDEST PUSH1 0x0 JUMPDEST DUP4 DUP2 LT ISZERO PUSH2 0xD14 JUMPI DUP1 DUP3 ADD MLOAD DUP2 DUP5 ADD MSTORE PUSH1 0x20 DUP2 ADD SWAP1 POP PUSH2 0xCF9 JUMP JUMPDEST PUSH1 0x0 DUP5 DUP5 ADD MSTORE POP POP POP POP JUMP JUMPDEST PUSH1 0x0 PUSH1 0x1F NOT PUSH1 0x1F DUP4 ADD AND SWAP1 POP SWAP2 SWAP1 POP JUMP JUMPDEST PUSH1 0x0 PUSH2 0xD3C DUP3 PUSH2 0xCDA JUMP JUMPDEST PUSH2 0xD46 DUP2 DUP6 PUSH2 0xCE5 JUMP JUMPDEST SWAP4 POP PUSH2 0xD56 DUP2 DUP6 PUSH1 0x20 DUP7 ADD PUSH2 0xCF6 JUMP JUMPDEST PUSH2 0xD5F DUP2 PUSH2 0xD20 JUMP JUMPDEST DUP5 ADD SWAP2 POP POP SWAP3 SWAP2 POP POP JUMP JUMPDEST PUSH1 0x0 PUSH1 0x20 DUP3 ADD SWAP1 POP DUP2 DUP2 SUB PUSH1 0x0 DUP4 ADD MSTORE PUSH2 0xD84 DUP2 DUP5 PUSH2 0xD31 JUMP JUMPDEST SWAP1 POP SWAP3 SWAP2 POP POP JUMP JUMPDEST PUSH1 0x0 DUP1 REVERT JUMPDEST PUSH1 0x0 DUP2 SWAP1 POP SWAP2 SWAP1 POP JUMP JUMPDEST PUSH2 0xDA4 DUP2 PUSH2 0xD91 JUMP JUMPDEST DUP2 EQ PUSH2 0xDAF JUMPI PUSH1 0x0 DUP1 REVERT JUMPDEST POP JUMP JUMPDEST PUSH1 0x0 DUP2 CALLDATALOAD SWAP1 POP PUSH2 0xDC1 DUP2 PUSH2 0xD9B JUMP JUMPDEST SWAP3 SWAP2 POP POP JUMP JUMPDEST PUSH1 0x0 PUSH1 0x20 DUP3 DUP5 SUB SLT ISZERO PUSH2 0xDDD JUMPI PUSH2 0xDDC PUSH2 0xD8C JUMP JUMPDEST JUMPDEST PUSH1 0x0 PUSH2 0xDEB DUP5 DUP3 DUP6 ADD PUSH2 0xDB2 JUMP JUMPDEST SWAP2 POP POP SWAP3 SWAP2 POP POP JUMP JUMPDEST PUSH1 0x0 PUSH20 0xFFFFFFFFFFFFFFFFFFFFFFFFFFFFFFFFFFFFFFFF DUP3 AND SWAP1 POP SWAP2 SWAP1 POP JUMP JUMPDEST PUSH1 0x0 PUSH2 0xE1F DUP3 PUSH2 0xDF4 JUMP JUMPDEST SWAP1 POP SWAP2 SWAP1 POP JUMP JUMPDEST PUSH2 0xE2F DUP2 PUSH2 0xE14 JUMP JUMPDEST DUP3 MSTORE POP POP JUMP JUMPDEST PUSH1 0x0 PUSH1 0x20 DUP3 ADD SWAP1 POP PUSH2 0xE4A PUSH1 0x0 DUP4 ADD DUP5 PUSH2 0xE26 JUMP JUMPDEST SWAP3 SWAP2 POP POP JUMP JUMPDEST PUSH2 0xE59 DUP2 PUSH2 0xE14 JUMP JUMPDEST DUP2 EQ PUSH2 0xE64 JUMPI PUSH1 0x0 DUP1 REVERT JUMPDEST POP JUMP JUMPDEST PUSH1 0x0 DUP2 CALLDATALOAD SWAP1 POP PUSH2 0xE76 DUP2 PUSH2 0xE50 JUMP JUMPDEST SWAP3 SWAP2 POP POP JUMP JUMPDEST PUSH1 0x0 DUP1 PUSH1 0x40 DUP4 DUP6 SUB SLT ISZERO PUSH2 0xE93 JUMPI PUSH2 0xE92 PUSH2 0xD8C JUMP JUMPDEST JUMPDEST PUSH1 0x0 PUSH2 0xEA1 DUP6 DUP3 DUP7 ADD PUSH2 0xE67 JUMP JUMPDEST SWAP3 POP POP PUSH1 0x20 PUSH2 0xEB2 DUP6 DUP3 DUP7 ADD PUSH2 0xDB2 JUMP JUMPDEST SWAP2 POP POP SWAP3 POP SWAP3 SWAP1 POP JUMP JUMPDEST PUSH1 0x0 DUP1 PUSH1 0x0 PUSH1 0x60 DUP5 DUP7 SUB SLT ISZERO PUSH2 0xED5 JUMPI PUSH2 0xED4 PUSH2 0xD8C JUMP JUMPDEST JUMPDEST PUSH1 0x0 PUSH2 0xEE3 DUP7 DUP3 DUP8 ADD PUSH2 0xE67 JUMP JUMPDEST SWAP4 POP POP PUSH1 0x20 PUSH2 0xEF4 DUP7 DUP3 DUP8 ADD PUSH2 0xE67 JUMP JUMPDEST SWAP3 POP POP PUSH1 0x40 PUSH2 0xF05 DUP7 DUP3 DUP8 ADD PUSH2 0xDB2 JUMP JUMPDEST SWAP2 POP POP SWAP3 POP SWAP3 POP SWAP3 JUMP JUMPDEST PUSH1 0x0 PUSH1 0x20 DUP3 DUP5 SUB SLT ISZERO PUSH2 0xF25 JUMPI PUSH2 0xF24 PUSH2 0xD8C JUMP JUMPDEST JUMPDEST PUSH1 0x0 PUSH2 0xF33 DUP5 DUP3 DUP6 ADD PUSH2 0xE67 JUMP JUMPDEST SWAP2 POP POP SWAP3 SWAP2 POP POP JUMP JUMPDEST PUSH2 0xF45 DUP2 PUSH2 0xD91 JUMP JUMPDEST DUP3 MSTORE POP POP JUMP JUMPDEST PUSH1 0x0 PUSH1 0x20 DUP3 ADD SWAP1 POP PUSH2 0xF60 PUSH1 0x0 DUP4 ADD DUP5 PUSH2 0xF3C JUMP JUMPDEST SWAP3 SWAP2 POP POP JUMP JUMPDEST PUSH1 0x0 DUP1 PUSH1 0x40 DUP4 DUP6 SUB SLT ISZERO PUSH2 0xF7D JUMPI PUSH2 0xF7C PUSH2 0xD8C JUMP JUMPDEST JUMPDEST PUSH1 0x0 PUSH2 0xF8B DUP6 DUP3 DUP7 ADD PUSH2 0xE67 JUMP JUMPDEST SWAP3 POP POP PUSH1 0x20 PUSH2 0xF9C DUP6 DUP3 DUP7 ADD PUSH2 0xE67 JUMP JUMPDEST SWAP2 POP POP SWAP3 POP SWAP3 SWAP1 POP JUMP JUMPDEST PUSH1 0x0 DUP2 ISZERO ISZERO SWAP1 POP SWAP2 SWAP1 POP JUMP JUMPDEST PUSH2 0xFBB DUP2 PUSH2 0xFA6 JUMP JUMPDEST DUP3 MSTORE POP POP JUMP JUMPDEST PUSH1 0x0 PUSH1 0x20 DUP3 ADD SWAP1 POP PUSH2 0xFD6 PUSH1 0x0 DUP4 ADD DUP5 PUSH2 0xFB2 JUMP JUMPDEST SWAP3 SWAP2 POP POP JUMP JUMPDEST PUSH32 0x4E487B7100000000000000000000000000000000000000000000000000000000 PUSH1 0x0 MSTORE PUSH1 0x22 PUSH1 0x4 MSTORE PUSH1 0x24 PUSH1 0x0 REVERT JUMPDEST PUSH1 0x0 PUSH1 0x2 DUP3 DIV SWAP1 POP PUSH1 0x1 DUP3 AND DUP1 PUSH2 0x1023 JUMPI PUSH1 0x7F DUP3 AND SWAP2 POP JUMPDEST PUSH1 0x20 DUP3 LT DUP2 SUB PUSH2 0x1036 JUMPI PUSH2 0x1035 PUSH2 0xFDC JUMP JUMPDEST JUMPDEST POP SWAP2 SWAP1 POP JUMP JUMPDEST PUSH32 0x417070726F76656420717565727920666F72206E6F6E6578697374656E742074 PUSH1 0x0 DUP3 ADD MSTORE PUSH32 0x6F6B656E00000000000000000000000000000000000000000000000000000000 PUSH1 0x20 DUP3 ADD MSTORE POP JUMP JUMPDEST PUSH1 0x0 PUSH2 0x1098 PUSH1 0x24 DUP4 PUSH2 0xCE5 JUMP JUMPDEST SWAP2 POP PUSH2 0x10A3 DUP3 PUSH2 0x103C JUMP JUMPDEST PUSH1 0x40 DUP3 ADD SWAP1 POP SWAP2 SWAP1 POP JUMP JUMPDEST PUSH1 0x0 PUSH1 0x20 DUP3 ADD SWAP1 POP DUP2 DUP2 SUB PUSH1 0x0 DUP4 ADD MSTORE PUSH2 0x10C7 DUP2 PUSH2 0x108B JUMP JUMPDEST SWAP1 POP SWAP2 SWAP1 POP JUMP JUMPDEST PUSH32 0x417070726F76616C20746F2063757272656E74206F776E657200000000000000 PUSH1 0x0 DUP3 ADD MSTORE POP JUMP JUMPDEST PUSH1 0x0 PUSH2 0x1104 PUSH1 0x19 DUP4 PUSH2 0xCE5 JUMP JUMPDEST SWAP2 POP PUSH2 0x110F DUP3 PUSH2 0x10CE JUMP JUMPDEST PUSH1 0x20 DUP3 ADD SWAP1 POP SWAP2 SWAP1 POP JUMP JUMPDEST PUSH1 0x0 PUSH1 0x20 DUP3 ADD SWAP1 POP DUP2 DUP2 SUB PUSH1 0x0 DUP4 ADD MSTORE PUSH2 0x1133 DUP2 PUSH2 0x10F7 JUMP JUMPDEST SWAP1 POP SWAP2 SWAP1 POP JUMP JUMPDEST PUSH32 0x43616C6C6572206973206E6F7420746F6B656E206F776E657200000000000000 PUSH1 0x0 DUP3 ADD MSTORE POP JUMP JUMPDEST PUSH1 0x0 PUSH2 0x1170 PUSH1 0x19 DUP4 PUSH2 0xCE5 JUMP JUMPDEST SWAP2 POP PUSH2 0x117B DUP3 PUSH2 0x113A JUMP JUMPDEST PUSH1 0x20 DUP3 ADD SWAP1 POP SWAP2 SWAP1 POP JUMP JUMPDEST PUSH1 0x0 PUSH1 0x20 DUP3 ADD SWAP1 POP DUP2 DUP2 SUB PUSH1 0x0 DUP4 ADD MSTORE PUSH2 0x119F DUP2 PUSH2 0x1163 JUMP JUMPDEST SWAP1 POP SWAP2 SWAP1 POP JUMP JUMPDEST PUSH32 0x5472616E736665722063616C6C6572206973206E6F74206F776E6572206E6F72 PUSH1 0x0 DUP3 ADD MSTORE PUSH32 0x20617070726F7665640000000000000000000000000000000000000000000000 PUSH1 0x20 DUP3 ADD MSTORE POP JUMP JUMPDEST PUSH1 0x0 PUSH2 0x1202 PUSH1 0x29 DUP4 PUSH2 0xCE5 JUMP JUMPDEST SWAP2 POP PUSH2 0x120D DUP3 PUSH2 0x11A6 JUMP JUMPDEST PUSH1 0x40 DUP3 ADD SWAP1 POP SWAP2 SWAP1 POP JUMP JUMPDEST PUSH1 0x0 PUSH1 0x20 DUP3 ADD SWAP1 POP DUP2 DUP2 SUB PUSH1 0x0 DUP4 ADD MSTORE PUSH2 0x1231 DUP2 PUSH2 0x11F5 JUMP JUMPDEST SWAP1 POP SWAP2 SWAP1 POP JUMP JUMPDEST PUSH32 0x5472616E73666572206F6620746F6B656E2074686174206973206E6F74206F77 PUSH1 0x0 DUP3 ADD MSTORE PUSH32 0x6E65640000000000000000000000000000000000000000000000000000000000 PUSH1 0x20 DUP3 ADD MSTORE POP JUMP JUMPDEST PUSH1 0x0 PUSH2 0x1294 PUSH1 0x23 DUP4 PUSH2 0xCE5 JUMP JUMPDEST SWAP2 POP PUSH2 0x129F DUP3 PUSH2 0x1238 JUMP JUMPDEST PUSH1 0x40 DUP3 ADD SWAP1 POP SWAP2 SWAP1 POP JUMP JUMPDEST PUSH1 0x0 PUSH1 0x20 DUP3 ADD SWAP1 POP DUP2 DUP2 SUB PUSH1 0x0 DUP4 ADD MSTORE PUSH2 0x12C3 DUP2 PUSH2 0x1287 JUMP JUMPDEST SWAP1 POP SWAP2 SWAP1 POP JUMP JUMPDEST PUSH32 0x5472616E7366657220746F20746865207A65726F206164647265737300000000 PUSH1 0x0 DUP3 ADD MSTORE POP JUMP JUMPDEST PUSH1 0x0 PUSH2 0x1300 PUSH1 0x1C DUP4 PUSH2 0xCE5 JUMP JUMPDEST SWAP2 POP PUSH2 0x130B DUP3 PUSH2 0x12CA JUMP JUMPDEST PUSH1 0x20 DUP3 ADD SWAP1 POP SWAP2 SWAP1 POP JUMP JUMPDEST PUSH1 0x0 PUSH1 0x20 DUP3 ADD SWAP1 POP DUP2 DUP2 SUB PUSH1 0x0 DUP4 ADD MSTORE PUSH2 0x132F DUP2 PUSH2 0x12F3 JUMP JUMPDEST SWAP1 POP SWAP2 SWAP1 POP JUMP JUMPDEST PUSH32 0x4E487B7100000000000000000000000000000000000000000000000000000000 PUSH1 0x0 MSTORE PUSH1 0x11 PUSH1 0x4 MSTORE PUSH1 0x24 PUSH1 0x0 REVERT JUMPDEST PUSH1 0x0 PUSH2 0x1370 DUP3 PUSH2 0xD91 JUMP JUMPDEST SWAP2 POP PUSH2 0x137B DUP4 PUSH2 0xD91 JUMP JUMPDEST SWAP3 POP DUP3 DUP3 SUB SWAP1 POP DUP2 DUP2 GT ISZERO PUSH2 0x1393 JUMPI PUSH2 0x1392 PUSH2 0x1336 JUMP JUMPDEST JUMPDEST SWAP3 SWAP2 POP POP JUMP JUMPDEST PUSH1 0x0 PUSH2 0x13A4 DUP3 PUSH2 0xD91 JUMP JUMPDEST SWAP2 POP PUSH2 0x13AF DUP4 PUSH2 0xD91 JUMP JUMPDEST SWAP3 POP DUP3 DUP3 ADD SWAP1 POP DUP1 DUP3 GT ISZERO PUSH2 0x13C7 JUMPI PUSH2 0x13C6 PUSH2 0x1336 JUMP JUMPDEST JUMPDEST SWAP3 SWAP2 POP POP JUMP JUMPDEST PUSH32 0x4D696E7420746F20746865207A65726F20616464726573730000000000000000 PUSH1 0x0 DUP3 ADD MSTORE POP JUMP JUMPDEST PUSH1 0x0 PUSH2 0x1403 PUSH1 0x18 DUP4 PUSH2 0xCE5 JUMP JUMPDEST SWAP2 POP PUSH2 0x140E DUP3 PUSH2 0x13CD JUMP JUMPDEST PUSH1 0x20 DUP3 ADD SWAP1 POP SWAP2 SWAP1 POP JUMP JUMPDEST PUSH1 0x0 PUSH1 0x20 DUP3 ADD SWAP1 POP DUP2 DUP2 SUB PUSH1 0x0 DUP4 ADD MSTORE PUSH2 0x1432 DUP2 PUSH2 0x13F6 JUMP JUMPDEST SWAP1 POP SWAP2 SWAP1 POP JUMP JUMPDEST PUSH32 0x546F6B656E20616C7265616479206D696E746564000000000000000000000000 PUSH1 0x0 DUP3 ADD MSTORE POP JUMP JUMPDEST PUSH1 0x0 PUSH2 0x146F PUSH1 0x14 DUP4 PUSH2 0xCE5 JUMP JUMPDEST SWAP2 POP PUSH2 0x147A DUP3 PUSH2 0x1439 JUMP JUMPDEST PUSH1 0x20 DUP3 ADD SWAP1 POP SWAP2 SWAP1 POP JUMP JUMPDEST PUSH1 0x0 PUSH1 0x20 DUP3 ADD SWAP1 POP DUP2 DUP2 SUB PUSH1 0x0 DUP4 ADD MSTORE PUSH2 0x149E DUP2 PUSH2 0x1462 JUMP JUMPDEST SWAP1 POP SWAP2 SWAP1 POP JUMP JUMPDEST PUSH32 0x4F776E657220717565727920666F72206E6F6E6578697374656E7420746F6B65 PUSH1 0x0 DUP3 ADD MSTORE PUSH32 0x6E00000000000000000000000000000000000000000000000000000000000000 PUSH1 0x20 DUP3 ADD MSTORE POP JUMP JUMPDEST PUSH1 0x0 PUSH2 0x1501 PUSH1 0x21 DUP4 PUSH2 0xCE5 JUMP JUMPDEST SWAP2 POP PUSH2 0x150C DUP3 PUSH2 0x14A5 JUMP JUMPDEST PUSH1 0x40 DUP3 ADD SWAP1 POP SWAP2 SWAP1 POP JUMP JUMPDEST PUSH1 0x0 PUSH1 0x20 DUP3 ADD SWAP1 POP DUP2 DUP2 SUB PUSH1 0x0 DUP4 ADD MSTORE PUSH2 0x1530 DUP2 PUSH2 0x14F4 JUMP JUMPDEST SWAP1 POP SWAP2 SWAP1 POP JUMP JUMPDEST PUSH32 0x42616C616E636520717565727920666F7220746865207A65726F206164647265 PUSH1 0x0 DUP3 ADD MSTORE PUSH32 0x7373000000000000000000000000000000000000000000000000000000000000 PUSH1 0x20 DUP3 ADD MSTORE POP JUMP JUMPDEST PUSH1 0x0 PUSH2 0x1593 PUSH1 0x22 DUP4 PUSH2 0xCE5 JUMP JUMPDEST SWAP2 POP PUSH2 0x159E DUP3 PUSH2 0x1537 JUMP JUMPDEST PUSH1 0x40 DUP3 ADD SWAP1 POP SWAP2 SWAP1 POP JUMP JUMPDEST PUSH1 0x0 PUSH1 0x20 DUP3 ADD SWAP1 POP DUP2 DUP2 SUB PUSH1 0x0 DUP4 ADD MSTORE PUSH2 0x15C2 DUP2 PUSH2 0x1586 JUMP JUMPDEST SWAP1 POP SWAP2 SWAP1 POP JUMP JUMPDEST PUSH32 0x4F70657261746F7220717565727920666F72206E6F6E6578697374656E742074 PUSH1 0x0 DUP3 ADD MSTORE PUSH32 0x6F6B656E00000000000000000000000000000000000000000000000000000000 PUSH1 0x20 DUP3 ADD MSTORE POP JUMP JUMPDEST PUSH1 0x0 PUSH2 0x1625 PUSH1 0x24 DUP4 PUSH2 0xCE5 JUMP JUMPDEST SWAP2 POP PUSH2 0x1630 DUP3 PUSH2 0x15C9 JUMP JUMPDEST PUSH1 0x40 DUP3 ADD SWAP1 POP SWAP2 SWAP1 POP JUMP JUMPDEST PUSH1 0x0 PUSH1 0x20 DUP3 ADD SWAP1 POP DUP2 DUP2 SUB PUSH1 0x0 DUP4 ADD MSTORE PUSH2 0x1654 DUP2 PUSH2 0x1618 JUMP JUMPDEST SWAP1 POP SWAP2 SWAP1 POP JUMP INVALID LOG2 PUSH5 0x6970667358 0x22 SLT KECCAK256 MSTORE PUSH11 0x3AF926191B869D6836A4C2 0xF6 PREVRANDAO CREATE2 0xEE 0xA8 0x4B 0xDD DUP7 0xF8 SWAP11 DUP2 0xA9 CREATE OR 0xEF 0xD1 DUP13 CODESIZE OR PUSH5 0x736F6C6343 STOP ADDMOD SHL STOP CALLER "},"methodIdentifiers":{"approve(address,uint256)":"095ea7b3","balanceOf(address)":"70a08231","getApproved(uint256)":"081812fc","isApprovedForAll(address,address)":"e985e9c5","mint(address,uint256)":"40c10f19","name()":"06fdde03","ownerOf(uint256)":"6352211e","symbol()":"95d89b41","transferFrom(address,address,uint256)":"23b872dd"}}}}}